{
  "contractName": "SupplyChain",
  "abi": [
    {
      "inputs": [],
      "stateMutability": "nonpayable",
      "type": "constructor"
    },
    {
      "inputs": [
        {
          "internalType": "address",
          "name": "",
          "type": "address"
        }
      ],
      "name": "accountsByAddress",
      "outputs": [
        {
          "internalType": "address",
          "name": "accountAddress",
          "type": "address"
        },
        {
          "internalType": "uint256",
          "name": "accountId",
          "type": "uint256"
        },
        {
          "internalType": "bool",
          "name": "isPaymentDone",
          "type": "bool"
        },
        {
          "internalType": "uint256",
          "name": "amountPaid",
          "type": "uint256"
        },
        {
          "internalType": "uint256",
          "name": "planExpiresAt",
          "type": "uint256"
        }
      ],
      "stateMutability": "view",
      "type": "function"
    },
    {
      "inputs": [],
      "name": "company",
      "outputs": [
        {
          "internalType": "address payable",
          "name": "",
          "type": "address"
        }
      ],
      "stateMutability": "view",
      "type": "function"
    },
    {
      "inputs": [
        {
          "internalType": "address",
          "name": "",
          "type": "address"
        }
      ],
      "name": "isAccountPresent",
      "outputs": [
        {
          "internalType": "bool",
          "name": "",
          "type": "bool"
        }
      ],
      "stateMutability": "view",
      "type": "function"
    },
    {
      "inputs": [
        {
          "internalType": "uint256",
          "name": "",
          "type": "uint256"
        }
      ],
      "name": "ownersById",
      "outputs": [
        {
          "internalType": "string",
          "name": "name",
          "type": "string"
        },
        {
          "internalType": "uint256",
          "name": "ownerId",
          "type": "uint256"
        }
      ],
      "stateMutability": "view",
      "type": "function"
    },
    {
      "inputs": [
        {
          "internalType": "uint256",
          "name": "",
          "type": "uint256"
        }
      ],
      "name": "suppliersById",
      "outputs": [
        {
          "internalType": "string",
          "name": "name",
          "type": "string"
        },
        {
          "internalType": "uint256",
          "name": "supplierId",
          "type": "uint256"
        }
      ],
      "stateMutability": "view",
      "type": "function"
    },
    {
      "inputs": [
        {
          "internalType": "address",
          "name": "_accountAddress",
          "type": "address"
        },
        {
          "internalType": "string",
          "name": "_name",
          "type": "string"
        },
        {
          "internalType": "uint256",
          "name": "_ownerId",
          "type": "uint256"
        }
      ],
      "name": "addOwner",
      "outputs": [],
      "stateMutability": "nonpayable",
      "type": "function"
    },
    {
      "inputs": [
        {
          "internalType": "address",
          "name": "_accountAddress",
          "type": "address"
        },
        {
          "internalType": "uint256",
          "name": "_ownerId",
          "type": "uint256"
        }
      ],
      "name": "getNoProductOwner",
      "outputs": [
        {
          "internalType": "uint256",
          "name": "",
          "type": "uint256"
        }
      ],
      "stateMutability": "view",
      "type": "function"
    },
    {
      "inputs": [
        {
          "internalType": "address",
          "name": "_accountAddress",
          "type": "address"
        },
        {
          "internalType": "uint256",
          "name": "_ownerId",
          "type": "uint256"
        }
      ],
      "name": "getProductGeneralDetailsOwner",
      "outputs": [
        {
          "components": [
            {
              "internalType": "string",
              "name": "name",
              "type": "string"
            },
            {
              "internalType": "uint256",
              "name": "productId",
              "type": "uint256"
            }
          ],
          "internalType": "struct SupplyChain.ProductDetails[]",
          "name": "",
          "type": "tuple[]"
        }
      ],
      "stateMutability": "view",
      "type": "function"
    },
    {
      "inputs": [
        {
          "internalType": "address",
          "name": "_accountAddress",
          "type": "address"
        },
        {
          "internalType": "uint256",
          "name": "_ownerId",
          "type": "uint256"
        },
        {
          "internalType": "uint256",
          "name": "_productId",
          "type": "uint256"
        }
      ],
      "name": "getProductStatusDetailsOwner",
      "outputs": [
        {
          "components": [
            {
              "internalType": "uint256",
              "name": "productId",
              "type": "uint256"
            },
            {
              "internalType": "uint256",
              "name": "time",
              "type": "uint256"
            },
            {
              "internalType": "string",
              "name": "message",
              "type": "string"
            },
            {
              "internalType": "uint256",
              "name": "publisherId",
              "type": "uint256"
            }
          ],
          "internalType": "struct SupplyChain.ProductStatusDeails[]",
          "name": "",
          "type": "tuple[]"
        }
      ],
      "stateMutability": "view",
      "type": "function"
    },
    {
      "inputs": [
        {
          "internalType": "address",
          "name": "_accountAddress",
          "type": "address"
        },
        {
          "internalType": "uint256",
          "name": "_ownerId",
          "type": "uint256"
        },
        {
          "internalType": "string",
          "name": "_name",
          "type": "string"
        }
      ],
      "name": "addProductOwner",
      "outputs": [],
      "stateMutability": "nonpayable",
      "type": "function"
    },
    {
      "inputs": [
        {
          "internalType": "address",
          "name": "_accountAddress",
          "type": "address"
        },
        {
          "internalType": "string",
          "name": "_name",
          "type": "string"
        },
        {
          "internalType": "uint256",
          "name": "_supplierId",
          "type": "uint256"
        }
      ],
      "name": "addSupplier",
      "outputs": [],
      "stateMutability": "nonpayable",
      "type": "function"
    },
    {
      "inputs": [
        {
          "internalType": "address",
          "name": "_accountAddress",
          "type": "address"
        },
        {
          "internalType": "uint256",
          "name": "_supplierId",
          "type": "uint256"
        }
      ],
      "name": "getNoProductSupplier",
      "outputs": [
        {
          "internalType": "uint256",
          "name": "",
          "type": "uint256"
        }
      ],
      "stateMutability": "view",
      "type": "function"
    },
    {
      "inputs": [
        {
          "internalType": "address",
          "name": "_accountAddress",
          "type": "address"
        },
        {
          "internalType": "uint256",
          "name": "_supplierId",
          "type": "uint256"
        }
      ],
      "name": "getProductGeneralDetailsSupplier",
      "outputs": [
        {
          "components": [
            {
              "internalType": "string",
              "name": "name",
              "type": "string"
            },
            {
              "internalType": "uint256",
              "name": "productId",
              "type": "uint256"
            }
          ],
          "internalType": "struct SupplyChain.ProductDetails[]",
          "name": "",
          "type": "tuple[]"
        }
      ],
      "stateMutability": "view",
      "type": "function"
    },
    {
      "inputs": [
        {
          "internalType": "address",
          "name": "_accountAddress",
          "type": "address"
        },
        {
          "internalType": "uint256",
          "name": "_supplierId",
          "type": "uint256"
        },
        {
          "internalType": "string",
          "name": "_message",
          "type": "string"
        },
        {
          "internalType": "uint256",
          "name": "_productId",
          "type": "uint256"
        }
      ],
      "name": "addProductStausSupplier",
      "outputs": [],
      "stateMutability": "nonpayable",
      "type": "function"
    },
    {
      "inputs": [
        {
          "internalType": "address",
          "name": "_accountAddress",
          "type": "address"
        }
      ],
      "name": "checkIfAccountPresent",
      "outputs": [
        {
          "internalType": "bool",
          "name": "",
          "type": "bool"
        }
      ],
      "stateMutability": "view",
      "type": "function"
    },
    {
      "inputs": [
        {
          "internalType": "address",
          "name": "_accountAddress",
          "type": "address"
        }
      ],
      "name": "createAccount",
      "outputs": [],
      "stateMutability": "nonpayable",
      "type": "function"
    },
    {
      "inputs": [
        {
          "internalType": "address",
          "name": "_accountAddress",
          "type": "address"
        }
      ],
      "name": "checkIfPaymentDone",
      "outputs": [
        {
          "internalType": "bool",
          "name": "",
          "type": "bool"
        }
      ],
      "stateMutability": "view",
      "type": "function"
    },
    {
      "inputs": [
        {
          "internalType": "address",
          "name": "_accountAddress",
          "type": "address"
        },
        {
          "internalType": "uint256",
          "name": "_amountPaid",
          "type": "uint256"
        },
        {
          "internalType": "uint256",
          "name": "_planExpiresAt",
          "type": "uint256"
        }
      ],
      "name": "selectPlan",
      "outputs": [],
      "stateMutability": "payable",
      "type": "function"
    },
    {
      "inputs": [
        {
          "internalType": "address",
          "name": "_accountAddress",
          "type": "address"
        }
      ],
      "name": "checkIfPlanExpired",
      "outputs": [
        {
          "internalType": "bool",
          "name": "",
          "type": "bool"
        }
      ],
      "stateMutability": "view",
      "type": "function"
    }
  ],
  "bytecode": "0x608060405234801561001057600080fd5b50336000806101000a81548173ffffffffffffffffffffffffffffffffffffffff021916908373ffffffffffffffffffffffffffffffffffffffff160217905550612c46806100606000396000f3fe6080604052600436106101145760003560e01c806369ced82f116100a0578063ac4f1d5311610064578063ac4f1d53146103f1578063acf95aba1461042f578063b2c4f87d14610458578063c1d69d5b14610495578063d5400e19146104d257610114565b806369ced82f146102e7578063851ecf15146103245780639859387b14610362578063a0e85f791461038b578063a44c1502146103c857610114565b806341929ea9116100e757806341929ea9146101fd578063537c1f6c14610226578063598bd4fc1461026357806365c2eaaa146102a05780636904c94d146102bc57610114565b80630651ba5c146101195780631a02d88e146101425780632808ffd81461017f5780632a8a372d146101c0575b600080fd5b34801561012557600080fd5b50610140600480360381019061013b91906120be565b61050f565b005b34801561014e57600080fd5b5061016960048036038101906101649190612125565b6106cd565b6040516101769190612793565b60405180910390f35b34801561018b57600080fd5b506101a660048036038101906101a19190612095565b6108dc565b6040516101b7959493929190612740565b60405180910390f35b3480156101cc57600080fd5b506101e760048036038101906101e29190612125565b61093f565b6040516101f491906128a2565b60405180910390f35b34801561020957600080fd5b50610224600480360381019061021f91906120be565b610a60565b005b34801561023257600080fd5b5061024d60048036038101906102489190612125565b610c1e565b60405161025a9190612793565b60405180910390f35b34801561026f57600080fd5b5061028a60048036038101906102859190612243565b610e2d565b60405161029791906127b5565b60405180910390f35b6102ba60048036038101906102b59190612243565b611022565b005b3480156102c857600080fd5b506102d161119e565b6040516102de9190612725565b60405180910390f35b3480156102f357600080fd5b5061030e60048036038101906103099190612125565b6111c2565b60405161031b91906128a2565b60405180910390f35b34801561033057600080fd5b5061034b60048036038101906103469190612292565b6112e3565b6040516103599291906127f2565b60405180910390f35b34801561036e57600080fd5b5061038960048036038101906103849190612095565b61138f565b005b34801561039757600080fd5b506103b260048036038101906103ad9190612095565b61156d565b6040516103bf91906127d7565b60405180910390f35b3480156103d457600080fd5b506103ef60048036038101906103ea9190612161565b61165b565b005b3480156103fd57600080fd5b5061041860048036038101906104139190612292565b6118e2565b6040516104269291906127f2565b60405180910390f35b34801561043b57600080fd5b50610456600480360381019061045191906121c8565b61198e565b005b34801561046457600080fd5b5061047f600480360381019061047a9190612095565b611b05565b60405161048c91906127d7565b60405180910390f35b3480156104a157600080fd5b506104bc60048036038101906104b79190612095565b611bfe565b6040516104c991906127d7565b60405180910390f35b3480156104de57600080fd5b506104f960048036038101906104f49190612095565b611c1e565b60405161050691906127d7565b60405180910390f35b600360008473ffffffffffffffffffffffffffffffffffffffff1673ffffffffffffffffffffffffffffffffffffffff16815260200190815260200160002060009054906101000a900460ff1661059b576040517f08c379a000000000000000000000000000000000000000000000000000000000815260040161059290612882565b60405180910390fd5b600460008473ffffffffffffffffffffffffffffffffffffffff1673ffffffffffffffffffffffffffffffffffffffff16815260200190815260200160002060040154421061061f576040517f08c379a000000000000000000000000000000000000000000000000000000000815260040161061690612822565b60405180910390fd5b600460008473ffffffffffffffffffffffffffffffffffffffff1673ffffffffffffffffffffffffffffffffffffffff168152602001908152602001600020600601604051806040016040528084815260200183815250908060018154018082558091505060019003906000526020600020906002020160009091909190915060008201518160000190805190602001906106bb929190611f60565b50602082015181600101555050505050565b606082826106db8282611d14565b61071a576040517f08c379a000000000000000000000000000000000000000000000000000000000815260040161071190612842565b60405180910390fd5b600460008373ffffffffffffffffffffffffffffffffffffffff1673ffffffffffffffffffffffffffffffffffffffff16815260200190815260200160002060040154421061079e576040517f08c379a000000000000000000000000000000000000000000000000000000000815260040161079590612822565b60405180910390fd5b600460008673ffffffffffffffffffffffffffffffffffffffff1673ffffffffffffffffffffffffffffffffffffffff168152602001908152602001600020600701805480602002602001604051908101604052809291908181526020016000905b828210156108ce578382906000526020600020906002020160405180604001604052908160008201805461083390612a8e565b80601f016020809104026020016040519081016040528092919081815260200182805461085f90612a8e565b80156108ac5780601f10610881576101008083540402835291602001916108ac565b820191906000526020600020905b81548152906001019060200180831161088f57829003601f168201915b5050505050815260200160018201548152505081526020019060010190610800565b505050509250505092915050565b60046020528060005260406000206000915090508060000160009054906101000a900473ffffffffffffffffffffffffffffffffffffffff16908060010154908060020160009054906101000a900460ff16908060030154908060040154905085565b6000828261094d8282611d14565b61098c576040517f08c379a000000000000000000000000000000000000000000000000000000000815260040161098390612842565b60405180910390fd5b600460008373ffffffffffffffffffffffffffffffffffffffff1673ffffffffffffffffffffffffffffffffffffffff168152602001908152602001600020600401544210610a10576040517f08c379a0000000000000000000000000000000000000000000000000000000008152600401610a0790612822565b60405180910390fd5b600460008673ffffffffffffffffffffffffffffffffffffffff1673ffffffffffffffffffffffffffffffffffffffff168152602001908152602001600020600701805490509250505092915050565b600360008473ffffffffffffffffffffffffffffffffffffffff1673ffffffffffffffffffffffffffffffffffffffff16815260200190815260200160002060009054906101000a900460ff16610aec576040517f08c379a0000000000000000000000000000000000000000000000000000000008152600401610ae390612882565b60405180910390fd5b600460008473ffffffffffffffffffffffffffffffffffffffff1673ffffffffffffffffffffffffffffffffffffffff168152602001908152602001600020600401544210610b70576040517f08c379a0000000000000000000000000000000000000000000000000000000008152600401610b6790612822565b60405180910390fd5b600460008473ffffffffffffffffffffffffffffffffffffffff1673ffffffffffffffffffffffffffffffffffffffff16815260200190815260200160002060050160405180604001604052808481526020018381525090806001815401808255809150506001900390600052602060002090600202016000909190919091506000820151816000019080519060200190610c0c929190611f60565b50602082015181600101555050505050565b60608282610c2c8282611e3a565b610c6b576040517f08c379a0000000000000000000000000000000000000000000000000000000008152600401610c6290612842565b60405180910390fd5b600460008373ffffffffffffffffffffffffffffffffffffffff1673ffffffffffffffffffffffffffffffffffffffff168152602001908152602001600020600401544210610cef576040517f08c379a0000000000000000000000000000000000000000000000000000000008152600401610ce690612822565b60405180910390fd5b600460008673ffffffffffffffffffffffffffffffffffffffff1673ffffffffffffffffffffffffffffffffffffffff168152602001908152602001600020600701805480602002602001604051908101604052809291908181526020016000905b82821015610e1f5783829060005260206000209060020201604051806040016040529081600082018054610d8490612a8e565b80601f0160208091040260200160405190810160405280929190818152602001828054610db090612a8e565b8015610dfd5780601f10610dd257610100808354040283529160200191610dfd565b820191906000526020600020905b815481529060010190602001808311610de057829003601f168201915b5050505050815260200160018201548152505081526020019060010190610d51565b505050509250505092915050565b60608383610e3b8282611d14565b610e7a576040517f08c379a0000000000000000000000000000000000000000000000000000000008152600401610e7190612842565b60405180910390fd5b600460008373ffffffffffffffffffffffffffffffffffffffff1673ffffffffffffffffffffffffffffffffffffffff168152602001908152602001600020600401544210610efe576040517f08c379a0000000000000000000000000000000000000000000000000000000008152600401610ef590612822565b60405180910390fd5b60016000858152602001908152602001600020805480602002602001604051908101604052809291908181526020016000905b8282101561101357838290600052602060002090600402016040518060800160405290816000820154815260200160018201548152602001600282018054610f7890612a8e565b80601f0160208091040260200160405190810160405280929190818152602001828054610fa490612a8e565b8015610ff15780601f10610fc657610100808354040283529160200191610ff1565b820191906000526020600020905b815481529060010190602001808311610fd457829003601f168201915b5050505050815260200160038201548152505081526020019060010190610f31565b50505050925050509392505050565b60008054906101000a900473ffffffffffffffffffffffffffffffffffffffff1673ffffffffffffffffffffffffffffffffffffffff163373ffffffffffffffffffffffffffffffffffffffff16146110b0576040517f08c379a00000000000000000000000000000000000000000000000000000000081526004016110a790612862565b60405180910390fd5b6001600460008573ffffffffffffffffffffffffffffffffffffffff1673ffffffffffffffffffffffffffffffffffffffff16815260200190815260200160002060020160006101000a81548160ff02191690831515021790555081600460008573ffffffffffffffffffffffffffffffffffffffff1673ffffffffffffffffffffffffffffffffffffffff1681526020019081526020016000206003018190555080600460008573ffffffffffffffffffffffffffffffffffffffff1673ffffffffffffffffffffffffffffffffffffffff16815260200190815260200160002060040181905550505050565b60008054906101000a900473ffffffffffffffffffffffffffffffffffffffff1681565b600082826111d08282611e3a565b61120f576040517f08c379a000000000000000000000000000000000000000000000000000000000815260040161120690612842565b60405180910390fd5b600460008373ffffffffffffffffffffffffffffffffffffffff1673ffffffffffffffffffffffffffffffffffffffff168152602001908152602001600020600401544210611293576040517f08c379a000000000000000000000000000000000000000000000000000000000815260040161128a90612822565b60405180910390fd5b600460008673ffffffffffffffffffffffffffffffffffffffff1673ffffffffffffffffffffffffffffffffffffffff168152602001908152602001600020600701805490509250505092915050565b600660205280600052604060002060009150905080600001805461130690612a8e565b80601f016020809104026020016040519081016040528092919081815260200182805461133290612a8e565b801561137f5780601f106113545761010080835404028352916020019161137f565b820191906000526020600020905b81548152906001019060200180831161136257829003601f168201915b5050505050908060010154905082565b60008054906101000a900473ffffffffffffffffffffffffffffffffffffffff1673ffffffffffffffffffffffffffffffffffffffff163373ffffffffffffffffffffffffffffffffffffffff161461141d576040517f08c379a000000000000000000000000000000000000000000000000000000000815260040161141490612862565b60405180910390fd5b6001600360008373ffffffffffffffffffffffffffffffffffffffff1673ffffffffffffffffffffffffffffffffffffffff16815260200190815260200160002060006101000a81548160ff02191690831515021790555080600460008373ffffffffffffffffffffffffffffffffffffffff1673ffffffffffffffffffffffffffffffffffffffff16815260200190815260200160002060000160006101000a81548173ffffffffffffffffffffffffffffffffffffffff021916908373ffffffffffffffffffffffffffffffffffffffff16021790555044438260405160200161150b939291906126af565b6040516020818303038152906040528051906020012060001c600460008373ffffffffffffffffffffffffffffffffffffffff1673ffffffffffffffffffffffffffffffffffffffff1681526020019081526020016000206001018190555050565b60008060009054906101000a900473ffffffffffffffffffffffffffffffffffffffff1673ffffffffffffffffffffffffffffffffffffffff163373ffffffffffffffffffffffffffffffffffffffff16146115fe576040517f08c379a00000000000000000000000000000000000000000000000000000000081526004016115f590612862565b60405180910390fd5b42600460008473ffffffffffffffffffffffffffffffffffffffff1673ffffffffffffffffffffffffffffffffffffffff1681526020019081526020016000206004015410156116515760019050611656565b600090505b919050565b82826116678282611d14565b6116a6576040517f08c379a000000000000000000000000000000000000000000000000000000000815260040161169d90612842565b60405180910390fd5b600460008373ffffffffffffffffffffffffffffffffffffffff1673ffffffffffffffffffffffffffffffffffffffff16815260200190815260200160002060040154421061172a576040517f08c379a000000000000000000000000000000000000000000000000000000000815260040161172190612822565b60405180910390fd5b6000444385604051602001611741939291906126ec565b6040516020818303038152906040528051906020012060001c9050600460008773ffffffffffffffffffffffffffffffffffffffff1673ffffffffffffffffffffffffffffffffffffffff168152602001908152602001600020600701604051806040016040528086815260200183815250908060018154018082558091505060019003906000526020600020906002020160009091909190915060008201518160000190805190602001906117f8929190611f60565b50602082015181600101555050600060405180608001604052808381526020014281526020016040518060400160405280600781526020017f4f72646572656400000000000000000000000000000000000000000000000000815250815260200187815250905060016000838152602001908152602001600020819080600181540180825580915050600190039060005260206000209060040201600090919091909150600082015181600001556020820151816001015560408201518160020190805190602001906118cc929190611f60565b5060608201518160030155505050505050505050565b600560205280600052604060002060009150905080600001805461190590612a8e565b80601f016020809104026020016040519081016040528092919081815260200182805461193190612a8e565b801561197e5780601f106119535761010080835404028352916020019161197e565b820191906000526020600020905b81548152906001019060200180831161196157829003601f168201915b5050505050908060010154905082565b838361199a8282611e3a565b6119d9576040517f08c379a00000000000000000000000000000000000000000000000000000000081526004016119d090612842565b60405180910390fd5b600460008373ffffffffffffffffffffffffffffffffffffffff1673ffffffffffffffffffffffffffffffffffffffff168152602001908152602001600020600401544210611a5d576040517f08c379a0000000000000000000000000000000000000000000000000000000008152600401611a5490612822565b60405180910390fd5b600060405180608001604052808581526020014281526020018681526020018781525090506001600085815260200190815260200160002081908060018154018082558091505060019003906000526020600020906004020160009091909190915060008201518160000155602082015181600101556040820151816002019080519060200190611aef929190611f60565b5060608201518160030155505050505050505050565b60008060009054906101000a900473ffffffffffffffffffffffffffffffffffffffff1673ffffffffffffffffffffffffffffffffffffffff163373ffffffffffffffffffffffffffffffffffffffff1614611b96576040517f08c379a0000000000000000000000000000000000000000000000000000000008152600401611b8d90612862565b60405180910390fd5b600460008373ffffffffffffffffffffffffffffffffffffffff1673ffffffffffffffffffffffffffffffffffffffff16815260200190815260200160002060020160009054906101000a900460ff1615611bf45760019050611bf9565b600090505b919050565b60036020528060005260406000206000915054906101000a900460ff1681565b60008060009054906101000a900473ffffffffffffffffffffffffffffffffffffffff1673ffffffffffffffffffffffffffffffffffffffff163373ffffffffffffffffffffffffffffffffffffffff1614611caf576040517f08c379a0000000000000000000000000000000000000000000000000000000008152600401611ca690612862565b60405180910390fd5b600360008373ffffffffffffffffffffffffffffffffffffffff1673ffffffffffffffffffffffffffffffffffffffff16815260200190815260200160002060009054906101000a900460ff1615611d0a5760019050611d0f565b600090505b919050565b600080600090506000600460008673ffffffffffffffffffffffffffffffffffffffff1673ffffffffffffffffffffffffffffffffffffffff1681526020019081526020016000206005018054905090505b60008114611e2d5783600460008773ffffffffffffffffffffffffffffffffffffffff1673ffffffffffffffffffffffffffffffffffffffff1681526020019081526020016000206005018381548110611de9577f4e487b7100000000000000000000000000000000000000000000000000000000600052603260045260246000fd5b9060005260206000209060020201600101541415611e0c57600192505050611e34565b8180611e1790612ac0565b9250508080611e2590612a64565b915050611d66565b6000925050505b92915050565b600080600090506000600460008673ffffffffffffffffffffffffffffffffffffffff1673ffffffffffffffffffffffffffffffffffffffff1681526020019081526020016000206006018054905090505b60008114611f535783600460008773ffffffffffffffffffffffffffffffffffffffff1673ffffffffffffffffffffffffffffffffffffffff1681526020019081526020016000206006018381548110611f0f577f4e487b7100000000000000000000000000000000000000000000000000000000600052603260045260246000fd5b9060005260206000209060020201600101541415611f3257600192505050611f5a565b8180611f3d90612ac0565b9250508080611f4b90612a64565b915050611e8c565b6000925050505b92915050565b828054611f6c90612a8e565b90600052602060002090601f016020900481019282611f8e5760008555611fd5565b82601f10611fa757805160ff1916838001178555611fd5565b82800160010185558215611fd5579182015b82811115611fd4578251825591602001919060010190611fb9565b5b509050611fe29190611fe6565b5090565b5b80821115611fff576000816000905550600101611fe7565b5090565b6000612016612011846128ee565b6128bd565b90508281526020810184848401111561202e57600080fd5b612039848285612a22565b509392505050565b60008135905061205081612be2565b92915050565b600082601f83011261206757600080fd5b8135612077848260208601612003565b91505092915050565b60008135905061208f81612bf9565b92915050565b6000602082840312156120a757600080fd5b60006120b584828501612041565b91505092915050565b6000806000606084860312156120d357600080fd5b60006120e186828701612041565b935050602084013567ffffffffffffffff8111156120fe57600080fd5b61210a86828701612056565b925050604061211b86828701612080565b9150509250925092565b6000806040838503121561213857600080fd5b600061214685828601612041565b925050602061215785828601612080565b9150509250929050565b60008060006060848603121561217657600080fd5b600061218486828701612041565b935050602061219586828701612080565b925050604084013567ffffffffffffffff8111156121b257600080fd5b6121be86828701612056565b9150509250925092565b600080600080608085870312156121de57600080fd5b60006121ec87828801612041565b94505060206121fd87828801612080565b935050604085013567ffffffffffffffff81111561221a57600080fd5b61222687828801612056565b925050606061223787828801612080565b91505092959194509250565b60008060006060848603121561225857600080fd5b600061226686828701612041565b935050602061227786828701612080565b925050604061228886828701612080565b9150509250925092565b6000602082840312156122a457600080fd5b60006122b284828501612080565b91505092915050565b60006122c783836125da565b905092915050565b60006122db8383612617565b905092915050565b6122ec816129da565b82525050565b6122fb816129c8565b82525050565b61231261230d826129c8565b612b09565b82525050565b60006123238261293e565b61232d8185612979565b93508360208202850161233f8561291e565b8060005b8581101561237b578484038952815161235c85826122bb565b94506123678361295f565b925060208a01995050600181019050612343565b50829750879550505050505092915050565b600061239882612949565b6123a2818561298a565b9350836020820285016123b48561292e565b8060005b858110156123f057848403895281516123d185826122cf565b94506123dc8361296c565b925060208a019950506001810190506123b8565b50829750879550505050505092915050565b61240b816129ec565b82525050565b600061241c82612954565b612426818561299b565b9350612436818560208601612a31565b61243f81612bc4565b840191505092915050565b600061245582612954565b61245f81856129ac565b935061246f818560208601612a31565b61247881612bc4565b840191505092915050565b600061248e82612954565b61249881856129bd565b93506124a8818560208601612a31565b80840191505092915050565b60006124c1600c836129ac565b91507f506c616e204578706972656400000000000000000000000000000000000000006000830152602082019050919050565b6000612501600d836129ac565b91507f4163636573732044656e696564000000000000000000000000000000000000006000830152602082019050919050565b60006125416029836129ac565b91507f4f6e6c792054686520436f6d70616e792063616e20616363657373207468697360008301527f2066756e6374696f6e00000000000000000000000000000000000000000000006020830152604082019050919050565b60006125a7600f836129ac565b91507f496e76616c6964204163636f756e7400000000000000000000000000000000006000830152602082019050919050565b600060408301600083015184820360008601526125f78282612411565b915050602083015161260c602086018261267a565b508091505092915050565b600060808301600083015161262f600086018261267a565b506020830151612642602086018261267a565b506040830151848203604086015261265a8282612411565b915050606083015161266f606086018261267a565b508091505092915050565b61268381612a18565b82525050565b61269281612a18565b82525050565b6126a96126a482612a18565b612b2d565b82525050565b60006126bb8286612698565b6020820191506126cb8285612698565b6020820191506126db8284612301565b601482019150819050949350505050565b60006126f88286612698565b6020820191506127088285612698565b6020820191506127188284612483565b9150819050949350505050565b600060208201905061273a60008301846122e3565b92915050565b600060a08201905061275560008301886122f2565b6127626020830187612689565b61276f6040830186612402565b61277c6060830185612689565b6127896080830184612689565b9695505050505050565b600060208201905081810360008301526127ad8184612318565b905092915050565b600060208201905081810360008301526127cf818461238d565b905092915050565b60006020820190506127ec6000830184612402565b92915050565b6000604082019050818103600083015261280c818561244a565b905061281b6020830184612689565b9392505050565b6000602082019050818103600083015261283b816124b4565b9050919050565b6000602082019050818103600083015261285b816124f4565b9050919050565b6000602082019050818103600083015261287b81612534565b9050919050565b6000602082019050818103600083015261289b8161259a565b9050919050565b60006020820190506128b76000830184612689565b92915050565b6000604051905081810181811067ffffffffffffffff821117156128e4576128e3612b95565b5b8060405250919050565b600067ffffffffffffffff82111561290957612908612b95565b5b601f19601f8301169050602081019050919050565b6000819050602082019050919050565b6000819050602082019050919050565b600081519050919050565b600081519050919050565b600081519050919050565b6000602082019050919050565b6000602082019050919050565b600082825260208201905092915050565b600082825260208201905092915050565b600082825260208201905092915050565b600082825260208201905092915050565b600081905092915050565b60006129d3826129f8565b9050919050565b60006129e5826129f8565b9050919050565b60008115159050919050565b600073ffffffffffffffffffffffffffffffffffffffff82169050919050565b6000819050919050565b82818337600083830152505050565b60005b83811015612a4f578082015181840152602081019050612a34565b83811115612a5e576000848401525b50505050565b6000612a6f82612a18565b91506000821415612a8357612a82612b37565b5b600182039050919050565b60006002820490506001821680612aa657607f821691505b60208210811415612aba57612ab9612b66565b5b50919050565b6000612acb82612a18565b91507fffffffffffffffffffffffffffffffffffffffffffffffffffffffffffffffff821415612afe57612afd612b37565b5b600182019050919050565b6000612b1482612b1b565b9050919050565b6000612b2682612bd5565b9050919050565b6000819050919050565b7f4e487b7100000000000000000000000000000000000000000000000000000000600052601160045260246000fd5b7f4e487b7100000000000000000000000000000000000000000000000000000000600052602260045260246000fd5b7f4e487b7100000000000000000000000000000000000000000000000000000000600052604160045260246000fd5b6000601f19601f8301169050919050565b60008160601b9050919050565b612beb816129c8565b8114612bf657600080fd5b50565b612c0281612a18565b8114612c0d57600080fd5b5056fea264697066735822122060d23d9f5e3a6f53ecc7b22480dd339d8730f6eccb379d1d9aacee6ab7245af764736f6c63430008000033",
  "immutableReferences": {},
  "source": "// SPDX-License-Identifier: GPL-3.0\npragma solidity ^0.8.0;\n\ncontract SupplyChain {\n    // The payable address of the company\n    address payable public company;\n\n    constructor() {\n        company = payable(msg.sender);\n    }\n\n    // The details of an user Account.\n    struct AccountDetails {\n        address accountAddress; // The unique account address of the user - from the metamask wallet.\n        uint256 accountId; // The unique account id - we generate it.\n        bool isPaymentDone; // The boolian variable to check if the payment is done or not.\n        uint256 amountPaid; // The amount (ETH) payed by the user.\n        uint256 planExpiresAt; // The time stamp at which the plan expires.\n        OwnerDetails[] owners; // The owner for the application.\n        SupplierDetails[] suppliers; // The list of suppliers for the application.\n        ProductDetails[] products; // The list of products for the application.\n    }\n\n    // The details of an owner Account.\n    struct OwnerDetails {\n        string name;\n        uint256 ownerId;\n    }\n\n    // The details of a supplier Account.\n    struct SupplierDetails {\n        string name;\n        uint256 supplierId;\n    }\n\n    // The details of a product.\n    struct ProductDetails {\n        string name;\n        uint256 productId;\n    }\n\n    mapping(uint256 => ProductStatusDeails[]) productStatus;\n\n    ProductStatusDeails[] productStatusDeailsList;\n\n    // The details of a product status.\n    struct ProductStatusDeails {\n        uint256 productId;\n        uint256 time;\n        string message;\n        uint256 publisherId;\n    }\n\n    // To check if the user is present.\n    mapping(address => bool) public isAccountPresent;\n\n    // To get the user from the account Address.\n    mapping(address => AccountDetails) public accountsByAddress;\n\n    // To get the owner from the account Address.\n    mapping(uint256 => OwnerDetails) public ownersById;\n\n    // To get the supplier from the account Address.\n    mapping(uint256 => SupplierDetails) public suppliersById;\n\n    // The functions that will be called by The Application (Using APIs):\n    // The Owner Application - OA\n    // The Supplier Application - SP\n\n    function isOwnerPresent(address _accountAddress, uint256 _ownerId)\n        private\n        view\n        returns (bool)\n    {\n        uint256 index = 0;\n        uint256 length = accountsByAddress[_accountAddress].owners.length;\n        while (length != 0) {\n            if (\n                accountsByAddress[_accountAddress].owners[index].ownerId ==\n                _ownerId\n            ) {\n                return true;\n            }\n            index++;\n            length--;\n        }\n        return false;\n    }\n\n    function isSupplierPresent(address _accountAddress, uint256 _supplierId)\n        private\n        view\n        returns (bool)\n    {\n        uint256 index = 0;\n        uint256 length = accountsByAddress[_accountAddress].suppliers.length;\n        while (length != 0) {\n            if (\n                accountsByAddress[_accountAddress]\n                    .suppliers[index]\n                    .supplierId == _supplierId\n            ) {\n                return true;\n            }\n            index++;\n            length--;\n        }\n        return false;\n    }\n\n    // The modifier that allows only the owners to access the functions.\n    modifier onlyOwner(address _accountAddress, uint256 _ownerId) {\n        require(isOwnerPresent(_accountAddress, _ownerId), \"Access Denied\");\n        require(\n            block.timestamp < accountsByAddress[_accountAddress].planExpiresAt,\n            \"Plan Expired\"\n        );\n        _;\n    }\n\n    // The modifier that allows only the suppliers to access the functions.\n    modifier onlySupplier(address _accountAddress, uint256 _supplierId) {\n        require(\n            isSupplierPresent(_accountAddress, _supplierId),\n            \"Access Denied\"\n        );\n        require(\n            block.timestamp < accountsByAddress[_accountAddress].planExpiresAt,\n            \"Plan Expired\"\n        );\n        _;\n    }\n\n    // OA-1 : The function to add an owner.\n    function addOwner(\n        address _accountAddress,\n        string memory _name,\n        uint256 _ownerId\n    ) public {\n        require(isAccountPresent[_accountAddress], \"Invalid Account\");\n        require(\n            block.timestamp < accountsByAddress[_accountAddress].planExpiresAt,\n            \"Plan Expired\"\n        );\n        accountsByAddress[_accountAddress].owners.push(\n            OwnerDetails(_name, _ownerId)\n        );\n    }\n\n    // OA-2 : The function to get the number of products.\n    function getNoProductOwner(address _accountAddress, uint256 _ownerId)\n        public\n        view\n        onlyOwner(_accountAddress, _ownerId)\n        returns (uint256)\n    {\n        return accountsByAddress[_accountAddress].products.length;\n    }\n\n    // OA-3 : The function to get the list of products.\n    function getProductGeneralDetailsOwner(\n        address _accountAddress,\n        uint256 _ownerId\n    )\n        public\n        view\n        onlyOwner(_accountAddress, _ownerId)\n        returns (ProductDetails[] memory)\n    {\n        return accountsByAddress[_accountAddress].products;\n    }\n\n    // OA-4 : The function to get a specific product's status details.\n    function getProductStatusDetailsOwner(\n        address _accountAddress,\n        uint256 _ownerId,\n        uint256 _productId\n    )\n        public\n        view\n        onlyOwner(_accountAddress, _ownerId)\n        returns (ProductStatusDeails[] memory)\n    {\n        return productStatus[_productId];\n    }\n\n    // OA-5 : The function to add a product.\n    function addProductOwner(\n        address _accountAddress,\n        uint256 _ownerId,\n        string memory _name\n    ) public onlyOwner(_accountAddress, _ownerId) {\n        uint256 productId = uint256(\n            keccak256(abi.encodePacked(block.difficulty, block.number, _name))\n        );\n        accountsByAddress[_accountAddress].products.push(\n            ProductDetails(_name, productId)\n        );\n        ProductStatusDeails memory productStatusDeails = ProductStatusDeails(\n            productId,\n            block.timestamp,\n            \"Ordered\",\n            _ownerId\n        );\n        productStatus[productId].push(productStatusDeails);\n    }\n\n    // SP-1 : The function to add an supplier.\n    function addSupplier(\n        address _accountAddress,\n        string memory _name,\n        uint256 _supplierId\n    ) public {\n        require(isAccountPresent[_accountAddress], \"Invalid Account\");\n        require(\n            block.timestamp < accountsByAddress[_accountAddress].planExpiresAt,\n            \"Plan Expired\"\n        );\n        accountsByAddress[_accountAddress].suppliers.push(\n            SupplierDetails(_name, _supplierId)\n        );\n    }\n\n    // OA-2 : The function to get the number of products.\n    function getNoProductSupplier(address _accountAddress, uint256 _supplierId)\n        public\n        view\n        onlySupplier(_accountAddress, _supplierId)\n        returns (uint256)\n    {\n        return accountsByAddress[_accountAddress].products.length;\n    }\n\n    // SP-3 : The function to get the list of products.\n    function getProductGeneralDetailsSupplier(\n        address _accountAddress,\n        uint256 _supplierId\n    )\n        public\n        view\n        onlySupplier(_accountAddress, _supplierId)\n        returns (ProductDetails[] memory)\n    {\n        return accountsByAddress[_accountAddress].products;\n    }\n\n    // SP-4 : The function to add a supply detail about the product.\n    function addProductStausSupplier(\n        address _accountAddress,\n        uint256 _supplierId,\n        string memory _message,\n        uint256 _productId\n    ) public onlySupplier(_accountAddress, _supplierId) {\n        ProductStatusDeails memory productStatusDeails = ProductStatusDeails(\n            _productId,\n            block.timestamp,\n            _message,\n            _supplierId\n        );\n        productStatus[_productId].push(productStatusDeails);\n    }\n\n    // The functions that will by called by The Company Website:  C - 1 to 5\n\n    // The modifier that allows only The Company access the functions.\n    modifier onlyCompany() {\n        require(\n            msg.sender == company,\n            \"Only The Company can access this function\"\n        );\n        _;\n    }\n\n    // C-1 :  The function to check if the Account is present. Returns - True / False.\n    function checkIfAccountPresent(address _accountAddress)\n        public\n        view\n        onlyCompany\n        returns (bool)\n    {\n        if (isAccountPresent[_accountAddress]) {\n            return true;\n        } else {\n            return false;\n        }\n    }\n\n    // C-2 : The function to careate an account. Called - checkIfAccountPresent returns False.\n    function createAccount(address _accountAddress) public onlyCompany {\n        isAccountPresent[_accountAddress] = true;\n        accountsByAddress[_accountAddress].accountAddress = _accountAddress;\n        accountsByAddress[_accountAddress].accountId = uint256(\n            keccak256(\n                abi.encodePacked(\n                    block.difficulty,\n                    block.number,\n                    _accountAddress\n                )\n            )\n        );\n    }\n\n    // C-3 : The function to check if the payment is done. Returns - True / False. Called - checkIfAccountPresent returns True.\n    function checkIfPaymentDone(address _accountAddress)\n        public\n        view\n        onlyCompany\n        returns (bool)\n    {\n        if (accountsByAddress[_accountAddress].isPaymentDone) {\n            return true;\n        } else {\n            return false;\n        }\n    }\n\n    // C-4 : The function to select a plan. Called - checkIfPaymentDone returns False.\n    function selectPlan(\n        address _accountAddress,\n        uint256 _amountPaid,\n        uint256 _planExpiresAt\n    ) public payable onlyCompany {\n        accountsByAddress[_accountAddress].isPaymentDone = true;\n        accountsByAddress[_accountAddress].amountPaid = _amountPaid;\n        accountsByAddress[_accountAddress].planExpiresAt = _planExpiresAt;\n    }\n\n    // C-5 : The function to check if the plan is expired. Returns - True / False.\n    function checkIfPlanExpired(address _accountAddress)\n        public\n        view\n        onlyCompany\n        returns (bool)\n    {\n        if (\n            accountsByAddress[_accountAddress].planExpiresAt < block.timestamp\n        ) {\n            return true;\n        } else {\n            return false;\n        }\n    }\n}\n",
  "sourcePath": "/home/ajith/Documents/SC-smart-contract/contracts/SupplyChain.sol",
  "compiler": {
    "name": "solc",
    "version": "0.8.0+commit.c7dfd78e.Emscripten.clang"
  },
  "schemaVersion": "3.4.6",
  "updatedAt": "2022-04-24T17:51:19.582Z",
  "devdoc": {
    "kind": "dev",
    "methods": {},
    "version": 1
  },
  "userdoc": {
    "kind": "user",
    "methods": {},
    "version": 1
  }
}