{
  "contractName": "SupplyChain",
  "abi": [
    {
      "inputs": [],
      "stateMutability": "nonpayable",
      "type": "constructor"
    },
    {
      "inputs": [
        {
          "internalType": "address",
          "name": "",
          "type": "address"
        }
      ],
      "name": "accountsByAddress",
      "outputs": [
        {
          "internalType": "address",
          "name": "accountAddress",
          "type": "address"
        },
        {
          "internalType": "uint256",
          "name": "accountId",
          "type": "uint256"
        },
        {
          "internalType": "bool",
          "name": "isPaymentDone",
          "type": "bool"
        },
        {
          "internalType": "uint256",
          "name": "amountPaid",
          "type": "uint256"
        },
        {
          "internalType": "uint256",
          "name": "planExpiresAt",
          "type": "uint256"
        }
      ],
      "stateMutability": "view",
      "type": "function",
      "constant": true
    },
    {
      "inputs": [],
      "name": "company",
      "outputs": [
        {
          "internalType": "address payable",
          "name": "",
          "type": "address"
        }
      ],
      "stateMutability": "view",
      "type": "function",
      "constant": true
    },
    {
      "inputs": [
        {
          "internalType": "address",
          "name": "",
          "type": "address"
        }
      ],
      "name": "isAccountPresent",
      "outputs": [
        {
          "internalType": "bool",
          "name": "",
          "type": "bool"
        }
      ],
      "stateMutability": "view",
      "type": "function",
      "constant": true
    },
    {
      "inputs": [
        {
          "internalType": "uint256",
          "name": "",
          "type": "uint256"
        }
      ],
      "name": "ownersById",
      "outputs": [
        {
          "internalType": "string",
          "name": "name",
          "type": "string"
        },
        {
          "internalType": "uint256",
          "name": "ownerId",
          "type": "uint256"
        }
      ],
      "stateMutability": "view",
      "type": "function",
      "constant": true
    },
    {
      "inputs": [
        {
          "internalType": "uint256",
          "name": "",
          "type": "uint256"
        }
      ],
      "name": "suppliersById",
      "outputs": [
        {
          "internalType": "string",
          "name": "name",
          "type": "string"
        },
        {
          "internalType": "uint256",
          "name": "supplierId",
          "type": "uint256"
        }
      ],
      "stateMutability": "view",
      "type": "function",
      "constant": true
    },
    {
      "inputs": [
        {
          "internalType": "address",
          "name": "_accountAddress",
          "type": "address"
        },
        {
          "internalType": "string",
          "name": "_name",
          "type": "string"
        },
        {
          "internalType": "uint256",
          "name": "_ownerId",
          "type": "uint256"
        }
      ],
      "name": "addOwner",
      "outputs": [],
      "stateMutability": "nonpayable",
      "type": "function"
    },
    {
      "inputs": [
        {
          "internalType": "address",
          "name": "_accountAddress",
          "type": "address"
        },
        {
          "internalType": "uint256",
          "name": "_ownerId",
          "type": "uint256"
        }
      ],
      "name": "getNoProduct",
      "outputs": [
        {
          "internalType": "uint256",
          "name": "",
          "type": "uint256"
        }
      ],
      "stateMutability": "view",
      "type": "function",
      "constant": true
    },
    {
      "inputs": [
        {
          "internalType": "address",
          "name": "_accountAddress",
          "type": "address"
        },
        {
          "internalType": "uint256",
          "name": "_ownerId",
          "type": "uint256"
        }
      ],
      "name": "getProductGeneralDetails1",
      "outputs": [
        {
          "components": [
            {
              "internalType": "string",
              "name": "name",
              "type": "string"
            },
            {
              "internalType": "uint256",
              "name": "productId",
              "type": "uint256"
            }
          ],
          "internalType": "struct SupplyChain.ProductDetails[]",
          "name": "",
          "type": "tuple[]"
        }
      ],
      "stateMutability": "view",
      "type": "function",
      "constant": true
    },
    {
      "inputs": [
        {
          "internalType": "address",
          "name": "_accountAddress",
          "type": "address"
        },
        {
          "internalType": "uint256",
          "name": "_ownerId",
          "type": "uint256"
        },
        {
          "internalType": "uint256",
          "name": "_productId",
          "type": "uint256"
        }
      ],
      "name": "getProductStatusDetails",
      "outputs": [
        {
          "components": [
            {
              "internalType": "uint256",
              "name": "productId",
              "type": "uint256"
            },
            {
              "internalType": "uint256",
              "name": "time",
              "type": "uint256"
            },
            {
              "internalType": "string",
              "name": "message",
              "type": "string"
            },
            {
              "internalType": "uint256",
              "name": "publisherId",
              "type": "uint256"
            }
          ],
          "internalType": "struct SupplyChain.ProductStatusDeails[]",
          "name": "",
          "type": "tuple[]"
        }
      ],
      "stateMutability": "view",
      "type": "function",
      "constant": true
    },
    {
      "inputs": [
        {
          "internalType": "address",
          "name": "_accountAddress",
          "type": "address"
        },
        {
          "internalType": "uint256",
          "name": "_ownerId",
          "type": "uint256"
        },
        {
          "internalType": "string",
          "name": "_name",
          "type": "string"
        }
      ],
      "name": "addProduct",
      "outputs": [],
      "stateMutability": "nonpayable",
      "type": "function"
    },
    {
      "inputs": [
        {
          "internalType": "address",
          "name": "_accountAddress",
          "type": "address"
        },
        {
          "internalType": "string",
          "name": "_name",
          "type": "string"
        },
        {
          "internalType": "uint256",
          "name": "_supplierId",
          "type": "uint256"
        }
      ],
      "name": "addSupplier",
      "outputs": [],
      "stateMutability": "nonpayable",
      "type": "function"
    },
    {
      "inputs": [
        {
          "internalType": "address",
          "name": "_accountAddress",
          "type": "address"
        },
        {
          "internalType": "uint256",
          "name": "_supplierId",
          "type": "uint256"
        }
      ],
      "name": "getNoProduct2",
      "outputs": [
        {
          "internalType": "uint256",
          "name": "",
          "type": "uint256"
        }
      ],
      "stateMutability": "view",
      "type": "function",
      "constant": true
    },
    {
      "inputs": [
        {
          "internalType": "address",
          "name": "_accountAddress",
          "type": "address"
        },
        {
          "internalType": "uint256",
          "name": "_supplierId",
          "type": "uint256"
        }
      ],
      "name": "getProductGeneralDetails2",
      "outputs": [
        {
          "components": [
            {
              "internalType": "string",
              "name": "name",
              "type": "string"
            },
            {
              "internalType": "uint256",
              "name": "productId",
              "type": "uint256"
            }
          ],
          "internalType": "struct SupplyChain.ProductDetails[]",
          "name": "",
          "type": "tuple[]"
        }
      ],
      "stateMutability": "view",
      "type": "function",
      "constant": true
    },
    {
      "inputs": [
        {
          "internalType": "address",
          "name": "_accountAddress",
          "type": "address"
        },
        {
          "internalType": "uint256",
          "name": "_supplierId",
          "type": "uint256"
        },
        {
          "internalType": "string",
          "name": "_message",
          "type": "string"
        },
        {
          "internalType": "uint256",
          "name": "_productId",
          "type": "uint256"
        }
      ],
      "name": "addProductStaus",
      "outputs": [],
      "stateMutability": "nonpayable",
      "type": "function"
    },
    {
      "inputs": [
        {
          "internalType": "address",
          "name": "_accountAddress",
          "type": "address"
        }
      ],
      "name": "checkIfAccountPresent",
      "outputs": [
        {
          "internalType": "bool",
          "name": "",
          "type": "bool"
        }
      ],
      "stateMutability": "view",
      "type": "function",
      "constant": true
    },
    {
      "inputs": [
        {
          "internalType": "address",
          "name": "_accountAddress",
          "type": "address"
        }
      ],
      "name": "createAccount",
      "outputs": [],
      "stateMutability": "nonpayable",
      "type": "function"
    },
    {
      "inputs": [
        {
          "internalType": "address",
          "name": "_accountAddress",
          "type": "address"
        }
      ],
      "name": "checkIfPaymentDone",
      "outputs": [
        {
          "internalType": "bool",
          "name": "",
          "type": "bool"
        }
      ],
      "stateMutability": "view",
      "type": "function",
      "constant": true
    },
    {
      "inputs": [
        {
          "internalType": "address",
          "name": "_accountAddress",
          "type": "address"
        },
        {
          "internalType": "uint256",
          "name": "_amountPaid",
          "type": "uint256"
        },
        {
          "internalType": "uint256",
          "name": "_planExpiresAt",
          "type": "uint256"
        }
      ],
      "name": "selectPlan",
      "outputs": [],
      "stateMutability": "payable",
      "type": "function",
      "payable": true
    },
    {
      "inputs": [
        {
          "internalType": "address",
          "name": "_accountAddress",
          "type": "address"
        }
      ],
      "name": "checkIfPlanExpired",
      "outputs": [
        {
          "internalType": "bool",
          "name": "",
          "type": "bool"
        }
      ],
      "stateMutability": "view",
      "type": "function",
      "constant": true
    }
  ],
  "bytecode": "0x608060405234801561001057600080fd5b50336000806101000a81548173ffffffffffffffffffffffffffffffffffffffff021916908373ffffffffffffffffffffffffffffffffffffffff1602179055506121fd806100606000396000f3fe6080604052600436106101145760003560e01c80637e25ce02116100a0578063b2c4f87d11610064578063b2c4f87d146103f2578063c1d69d5b1461042f578063d5400e191461046c578063ec9aa13c146104a9578063fd170b6e146104d257610114565b80637e25ce02146102d3578063851ecf15146103105780639859387b1461034e578063a0e85f7914610377578063ac4f1d53146103b457610114565b806365c2eaaa116100e757806365c2eaaa146101e95780636904c94d146102055780637434c05314610230578063761680f61461026d5780637cfa80ab1461029657610114565b80630651ba5c146101195780632808ffd81461014257806341929ea914610183578063473c56f6146101ac575b600080fd5b34801561012557600080fd5b50610140600480360381019061013b91906117d7565b61050f565b005b34801561014e57600080fd5b50610169600480360381019061016491906117ae565b61064d565b60405161017a959493929190611dd9565b60405180910390f35b34801561018f57600080fd5b506101aa60048036038101906101a591906117d7565b6106b0565b005b3480156101b857600080fd5b506101d360048036038101906101ce919061183e565b6107ee565b6040516101e09190611efb565b60405180910390f35b61020360048036038101906101fe919061195c565b610842565b005b34801561021157600080fd5b5061021a6109be565b6040516102279190611dbe565b60405180910390f35b34801561023c57600080fd5b506102576004803603810190610252919061195c565b6109e2565b6040516102649190611e4e565b60405180910390f35b34801561027957600080fd5b50610294600480360381019061028f91906118e1565b610b0a565b005b3480156102a257600080fd5b506102bd60048036038101906102b8919061183e565b610bb4565b6040516102ca9190611e2c565b60405180910390f35b3480156102df57600080fd5b506102fa60048036038101906102f5919061183e565b610cf6565b6040516103079190611efb565b60405180910390f35b34801561031c57600080fd5b50610337600480360381019061033291906119ab565b610d4a565b604051610345929190611e8b565b60405180910390f35b34801561035a57600080fd5b50610375600480360381019061037091906117ae565b610df6565b005b34801561038357600080fd5b5061039e600480360381019061039991906117ae565b610fd4565b6040516103ab9190611e70565b60405180910390f35b3480156103c057600080fd5b506103db60048036038101906103d691906119ab565b6110c2565b6040516103e9929190611e8b565b60405180910390f35b3480156103fe57600080fd5b50610419600480360381019061041491906117ae565b61116e565b6040516104269190611e70565b60405180910390f35b34801561043b57600080fd5b50610456600480360381019061045191906117ae565b611267565b6040516104639190611e70565b60405180910390f35b34801561047857600080fd5b50610493600480360381019061048e91906117ae565b611287565b6040516104a09190611e70565b60405180910390f35b3480156104b557600080fd5b506104d060048036038101906104cb919061187a565b61137d565b005b3480156104de57600080fd5b506104f960048036038101906104f4919061183e565b611537565b6040516105069190611e2c565b60405180910390f35b8281600360008673ffffffffffffffffffffffffffffffffffffffff1673ffffffffffffffffffffffffffffffffffffffff16815260200190815260200160002060009054906101000a900460ff1661059d576040517f08c379a000000000000000000000000000000000000000000000000000000000815260040161059490611edb565b60405180910390fd5b600460008673ffffffffffffffffffffffffffffffffffffffff1673ffffffffffffffffffffffffffffffffffffffff16815260200190815260200160002060060160405180604001604052808681526020018581525090806001815401808255809150506001900390600052602060002090600202016000909190919091506000820151816000019080519060200190610639929190611679565b506020820151816001015550505050505050565b60046020528060005260406000206000915090508060000160009054906101000a900473ffffffffffffffffffffffffffffffffffffffff16908060010154908060020160009054906101000a900460ff16908060030154908060040154905085565b8281600360008673ffffffffffffffffffffffffffffffffffffffff1673ffffffffffffffffffffffffffffffffffffffff16815260200190815260200160002060009054906101000a900460ff1661073e576040517f08c379a000000000000000000000000000000000000000000000000000000000815260040161073590611edb565b60405180910390fd5b600460008673ffffffffffffffffffffffffffffffffffffffff1673ffffffffffffffffffffffffffffffffffffffff168152602001908152602001600020600501604051806040016040528086815260200185815250908060018154018082558091505060019003906000526020600020906002020160009091909190915060008201518160000190805190602001906107da929190611679565b506020820151816001015550505050505050565b60008282600460008673ffffffffffffffffffffffffffffffffffffffff1673ffffffffffffffffffffffffffffffffffffffff168152602001908152602001600020600701805490509250505092915050565b60008054906101000a900473ffffffffffffffffffffffffffffffffffffffff1673ffffffffffffffffffffffffffffffffffffffff163373ffffffffffffffffffffffffffffffffffffffff16146108d0576040517f08c379a00000000000000000000000000000000000000000000000000000000081526004016108c790611ebb565b60405180910390fd5b6001600460008573ffffffffffffffffffffffffffffffffffffffff1673ffffffffffffffffffffffffffffffffffffffff16815260200190815260200160002060020160006101000a81548160ff02191690831515021790555081600460008573ffffffffffffffffffffffffffffffffffffffff1673ffffffffffffffffffffffffffffffffffffffff1681526020019081526020016000206003018190555080600460008573ffffffffffffffffffffffffffffffffffffffff1673ffffffffffffffffffffffffffffffffffffffff16815260200190815260200160002060040181905550505050565b60008054906101000a900473ffffffffffffffffffffffffffffffffffffffff1681565b6060838360016000858152602001908152602001600020805480602002602001604051908101604052809291908181526020016000905b82821015610afb57838290600052602060002090600402016040518060800160405290816000820154815260200160018201548152602001600282018054610a60906120bd565b80601f0160208091040260200160405190810160405280929190818152602001828054610a8c906120bd565b8015610ad95780601f10610aae57610100808354040283529160200191610ad9565b820191906000526020600020905b815481529060010190602001808311610abc57829003601f168201915b5050505050815260200160038201548152505081526020019060010190610a19565b50505050925050509392505050565b8383600060405180608001604052808581526020014281526020018681526020018781525090506001600085815260200190815260200160002081908060018154018082558091505060019003906000526020600020906004020160009091909190915060008201518160000155602082015181600101556040820151816002019080519060200190610b9e929190611679565b5060608201518160030155505050505050505050565b60608282600460008673ffffffffffffffffffffffffffffffffffffffff1673ffffffffffffffffffffffffffffffffffffffff168152602001908152602001600020600701805480602002602001604051908101604052809291908181526020016000905b82821015610ce85783829060005260206000209060020201604051806040016040529081600082018054610c4d906120bd565b80601f0160208091040260200160405190810160405280929190818152602001828054610c79906120bd565b8015610cc65780601f10610c9b57610100808354040283529160200191610cc6565b820191906000526020600020905b815481529060010190602001808311610ca957829003601f168201915b5050505050815260200160018201548152505081526020019060010190610c1a565b505050509250505092915050565b60008282600460008673ffffffffffffffffffffffffffffffffffffffff1673ffffffffffffffffffffffffffffffffffffffff168152602001908152602001600020600701805490509250505092915050565b6006602052806000526040600020600091509050806000018054610d6d906120bd565b80601f0160208091040260200160405190810160405280929190818152602001828054610d99906120bd565b8015610de65780601f10610dbb57610100808354040283529160200191610de6565b820191906000526020600020905b815481529060010190602001808311610dc957829003601f168201915b5050505050908060010154905082565b60008054906101000a900473ffffffffffffffffffffffffffffffffffffffff1673ffffffffffffffffffffffffffffffffffffffff163373ffffffffffffffffffffffffffffffffffffffff1614610e84576040517f08c379a0000000000000000000000000000000000000000000000000000000008152600401610e7b90611ebb565b60405180910390fd5b6001600360008373ffffffffffffffffffffffffffffffffffffffff1673ffffffffffffffffffffffffffffffffffffffff16815260200190815260200160002060006101000a81548160ff02191690831515021790555080600460008373ffffffffffffffffffffffffffffffffffffffff1673ffffffffffffffffffffffffffffffffffffffff16815260200190815260200160002060000160006101000a81548173ffffffffffffffffffffffffffffffffffffffff021916908373ffffffffffffffffffffffffffffffffffffffff160217905550444382604051602001610f7293929190611d48565b6040516020818303038152906040528051906020012060001c600460008373ffffffffffffffffffffffffffffffffffffffff1673ffffffffffffffffffffffffffffffffffffffff1681526020019081526020016000206001018190555050565b60008060009054906101000a900473ffffffffffffffffffffffffffffffffffffffff1673ffffffffffffffffffffffffffffffffffffffff163373ffffffffffffffffffffffffffffffffffffffff1614611065576040517f08c379a000000000000000000000000000000000000000000000000000000000815260040161105c90611ebb565b60405180910390fd5b42600460008473ffffffffffffffffffffffffffffffffffffffff1673ffffffffffffffffffffffffffffffffffffffff1681526020019081526020016000206004015410156110b857600190506110bd565b600090505b919050565b60056020528060005260406000206000915090508060000180546110e5906120bd565b80601f0160208091040260200160405190810160405280929190818152602001828054611111906120bd565b801561115e5780601f106111335761010080835404028352916020019161115e565b820191906000526020600020905b81548152906001019060200180831161114157829003601f168201915b5050505050908060010154905082565b60008060009054906101000a900473ffffffffffffffffffffffffffffffffffffffff1673ffffffffffffffffffffffffffffffffffffffff163373ffffffffffffffffffffffffffffffffffffffff16146111ff576040517f08c379a00000000000000000000000000000000000000000000000000000000081526004016111f690611ebb565b60405180910390fd5b600460008373ffffffffffffffffffffffffffffffffffffffff1673ffffffffffffffffffffffffffffffffffffffff16815260200190815260200160002060020160009054906101000a900460ff161561125d5760019050611262565b600090505b919050565b60036020528060005260406000206000915054906101000a900460ff1681565b60008060009054906101000a900473ffffffffffffffffffffffffffffffffffffffff1673ffffffffffffffffffffffffffffffffffffffff163373ffffffffffffffffffffffffffffffffffffffff1614611318576040517f08c379a000000000000000000000000000000000000000000000000000000000815260040161130f90611ebb565b60405180910390fd5b600360008373ffffffffffffffffffffffffffffffffffffffff1673ffffffffffffffffffffffffffffffffffffffff16815260200190815260200160002060009054906101000a900460ff16156113735760019050611378565b600090505b919050565b8282600044438560405160200161139693929190611d85565b6040516020818303038152906040528051906020012060001c9050600460008773ffffffffffffffffffffffffffffffffffffffff1673ffffffffffffffffffffffffffffffffffffffff1681526020019081526020016000206007016040518060400160405280868152602001838152509080600181540180825580915050600190039060005260206000209060020201600090919091909150600082015181600001908051906020019061144d929190611679565b50602082015181600101555050600060405180608001604052808381526020014281526020016040518060400160405280600781526020017f4f7264657265640000000000000000000000000000000000000000000000000081525081526020018781525090506001600083815260200190815260200160002081908060018154018082558091505060019003906000526020600020906004020160009091909190915060008201518160000155602082015181600101556040820151816002019080519060200190611521929190611679565b5060608201518160030155505050505050505050565b60608282600460008673ffffffffffffffffffffffffffffffffffffffff1673ffffffffffffffffffffffffffffffffffffffff168152602001908152602001600020600701805480602002602001604051908101604052809291908181526020016000905b8282101561166b57838290600052602060002090600202016040518060400160405290816000820180546115d0906120bd565b80601f01602080910402602001604051908101604052809291908181526020018280546115fc906120bd565b80156116495780601f1061161e57610100808354040283529160200191611649565b820191906000526020600020905b81548152906001019060200180831161162c57829003601f168201915b505050505081526020016001820154815250508152602001906001019061159d565b505050509250505092915050565b828054611685906120bd565b90600052602060002090601f0160209004810192826116a757600085556116ee565b82601f106116c057805160ff19168380011785556116ee565b828001600101855582156116ee579182015b828111156116ed5782518255916020019190600101906116d2565b5b5090506116fb91906116ff565b5090565b5b80821115611718576000816000905550600101611700565b5090565b600061172f61172a84611f47565b611f16565b90508281526020810184848401111561174757600080fd5b61175284828561207b565b509392505050565b60008135905061176981612199565b92915050565b600082601f83011261178057600080fd5b813561179084826020860161171c565b91505092915050565b6000813590506117a8816121b0565b92915050565b6000602082840312156117c057600080fd5b60006117ce8482850161175a565b91505092915050565b6000806000606084860312156117ec57600080fd5b60006117fa8682870161175a565b935050602084013567ffffffffffffffff81111561181757600080fd5b6118238682870161176f565b925050604061183486828701611799565b9150509250925092565b6000806040838503121561185157600080fd5b600061185f8582860161175a565b925050602061187085828601611799565b9150509250929050565b60008060006060848603121561188f57600080fd5b600061189d8682870161175a565b93505060206118ae86828701611799565b925050604084013567ffffffffffffffff8111156118cb57600080fd5b6118d78682870161176f565b9150509250925092565b600080600080608085870312156118f757600080fd5b60006119058782880161175a565b945050602061191687828801611799565b935050604085013567ffffffffffffffff81111561193357600080fd5b61193f8782880161176f565b925050606061195087828801611799565b91505092959194509250565b60008060006060848603121561197157600080fd5b600061197f8682870161175a565b935050602061199086828701611799565b92505060406119a186828701611799565b9150509250925092565b6000602082840312156119bd57600080fd5b60006119cb84828501611799565b91505092915050565b60006119e08383611c73565b905092915050565b60006119f48383611cb0565b905092915050565b611a0581612033565b82525050565b611a1481612021565b82525050565b611a2b611a2682612021565b6120ef565b82525050565b6000611a3c82611f97565b611a468185611fd2565b935083602082028501611a5885611f77565b8060005b85811015611a945784840389528151611a7585826119d4565b9450611a8083611fb8565b925060208a01995050600181019050611a5c565b50829750879550505050505092915050565b6000611ab182611fa2565b611abb8185611fe3565b935083602082028501611acd85611f87565b8060005b85811015611b095784840389528151611aea85826119e8565b9450611af583611fc5565b925060208a01995050600181019050611ad1565b50829750879550505050505092915050565b611b2481612045565b82525050565b6000611b3582611fad565b611b3f8185611ff4565b9350611b4f81856020860161208a565b611b588161217b565b840191505092915050565b6000611b6e82611fad565b611b788185612005565b9350611b8881856020860161208a565b611b918161217b565b840191505092915050565b6000611ba782611fad565b611bb18185612016565b9350611bc181856020860161208a565b80840191505092915050565b6000611bda602983612005565b91507f4f6e6c792054686520436f6d70616e792063616e20616363657373207468697360008301527f2066756e6374696f6e00000000000000000000000000000000000000000000006020830152604082019050919050565b6000611c40600f83612005565b91507f496e76616c6964204163636f756e7400000000000000000000000000000000006000830152602082019050919050565b60006040830160008301518482036000860152611c908282611b2a565b9150506020830151611ca56020860182611d13565b508091505092915050565b6000608083016000830151611cc86000860182611d13565b506020830151611cdb6020860182611d13565b5060408301518482036040860152611cf38282611b2a565b9150506060830151611d086060860182611d13565b508091505092915050565b611d1c81612071565b82525050565b611d2b81612071565b82525050565b611d42611d3d82612071565b612113565b82525050565b6000611d548286611d31565b602082019150611d648285611d31565b602082019150611d748284611a1a565b601482019150819050949350505050565b6000611d918286611d31565b602082019150611da18285611d31565b602082019150611db18284611b9c565b9150819050949350505050565b6000602082019050611dd360008301846119fc565b92915050565b600060a082019050611dee6000830188611a0b565b611dfb6020830187611d22565b611e086040830186611b1b565b611e156060830185611d22565b611e226080830184611d22565b9695505050505050565b60006020820190508181036000830152611e468184611a31565b905092915050565b60006020820190508181036000830152611e688184611aa6565b905092915050565b6000602082019050611e856000830184611b1b565b92915050565b60006040820190508181036000830152611ea58185611b63565b9050611eb46020830184611d22565b9392505050565b60006020820190508181036000830152611ed481611bcd565b9050919050565b60006020820190508181036000830152611ef481611c33565b9050919050565b6000602082019050611f106000830184611d22565b92915050565b6000604051905081810181811067ffffffffffffffff82111715611f3d57611f3c61214c565b5b8060405250919050565b600067ffffffffffffffff821115611f6257611f6161214c565b5b601f19601f8301169050602081019050919050565b6000819050602082019050919050565b6000819050602082019050919050565b600081519050919050565b600081519050919050565b600081519050919050565b6000602082019050919050565b6000602082019050919050565b600082825260208201905092915050565b600082825260208201905092915050565b600082825260208201905092915050565b600082825260208201905092915050565b600081905092915050565b600061202c82612051565b9050919050565b600061203e82612051565b9050919050565b60008115159050919050565b600073ffffffffffffffffffffffffffffffffffffffff82169050919050565b6000819050919050565b82818337600083830152505050565b60005b838110156120a857808201518184015260208101905061208d565b838111156120b7576000848401525b50505050565b600060028204905060018216806120d557607f821691505b602082108114156120e9576120e861211d565b5b50919050565b60006120fa82612101565b9050919050565b600061210c8261218c565b9050919050565b6000819050919050565b7f4e487b7100000000000000000000000000000000000000000000000000000000600052602260045260246000fd5b7f4e487b7100000000000000000000000000000000000000000000000000000000600052604160045260246000fd5b6000601f19601f8301169050919050565b60008160601b9050919050565b6121a281612021565b81146121ad57600080fd5b50565b6121b981612071565b81146121c457600080fd5b5056fea2646970667358221220e4a9c10680483fbfe5ed01bdb6db4291f0616544742b5df13b8fc37aed8c439e64736f6c63430008000033",
  "immutableReferences": {},
  "source": "// SPDX-License-Identifier: GPL-3.0\npragma solidity ^0.8.0;\n\ncontract SupplyChain {\n    // The payable address of the company\n    address payable public company;\n\n    constructor() {\n        company = payable(msg.sender);\n    }\n\n    // The details of an user Account.\n    struct AccountDetails {\n        address accountAddress; // The unique account address of the user - from the metamask wallet.\n        uint256 accountId; // The unique account id - we generate it.\n        bool isPaymentDone; // The boolian variable to check if the payment is done or not.\n        uint256 amountPaid; // The amount (ETH) payed by the user.\n        uint256 planExpiresAt; // The time stamp at which the plan expires.\n        OwnerDetails[] owners; // The owner for the application.\n        SupplierDetails[] suppliers; // The list of suppliers for the application.\n        ProductDetails[] products; // The list of products for the application.\n    }\n\n    // The details of an owner Account.\n    struct OwnerDetails {\n        string name;\n        uint256 ownerId;\n    }\n\n    // The details of a supplier Account.\n    struct SupplierDetails {\n        string name;\n        uint256 supplierId;\n    }\n\n    // The details of a product.\n    struct ProductDetails {\n        string name;\n        uint256 productId;\n    }\n\n    mapping(uint256 => ProductStatusDeails[]) productStatus;\n\n    ProductStatusDeails[] productStatusDeailsList;\n\n    // The details of a product status.\n    struct ProductStatusDeails {\n        uint256 productId;\n        uint256 time;\n        string message;\n        uint256 publisherId;\n    }\n\n    // To check if the user is present.\n    mapping(address => bool) public isAccountPresent;\n\n    // To get the user from the account Address.\n    mapping(address => AccountDetails) public accountsByAddress;\n\n    // To get the owner from the account Address.\n    mapping(uint256 => OwnerDetails) public ownersById;\n\n    // To get the supplier from the account Address.\n    mapping(uint256 => SupplierDetails) public suppliersById;\n\n    // The functions that will be called by The Application (Using APIs):\n    // The Owner Application - OA\n    // The Supplier Application - SP\n\n    // The modifier that allows only the owners to access the functions.\n    modifier onlyOwner(address _accountAddress, uint256 _ownerId) {\n        //require(msg.sender == company,\"Only The Company can access this function\");\n        _;\n    }\n\n    // The modifier that allows only the suppliers to access the functions.\n    modifier onlySupplier(address _accountAddress, uint256 _supplierId) {\n        //require(msg.sender == company,\"Only The Company can access this function\");\n        _;\n    }\n\n    // OA-1 : The function to add an owner.\n    function addOwner(\n        address _accountAddress,\n        string memory _name,\n        uint256 _ownerId\n    ) public onlyOwner(_accountAddress, _ownerId) {\n        require(isAccountPresent[_accountAddress], \"Invalid Account\");\n        accountsByAddress[_accountAddress].owners.push(\n            OwnerDetails(_name, _ownerId)\n        );\n    }\n\n    // OA-2 : The function to get the number of products.\n    function getNoProduct(address _accountAddress, uint256 _ownerId)\n        public\n        view\n        onlyOwner(_accountAddress, _ownerId)\n        returns (uint256)\n    {\n        return accountsByAddress[_accountAddress].products.length;\n    }\n\n    // OA-3 : The function to get the list of products.\n    function getProductGeneralDetails1(\n        address _accountAddress,\n        uint256 _ownerId\n    )\n        public\n        view\n        onlyOwner(_accountAddress, _ownerId)\n        returns (ProductDetails[] memory)\n    {\n        return accountsByAddress[_accountAddress].products;\n    }\n\n    // OA-4 : The function to get a specific product's status details.\n    function getProductStatusDetails(\n        address _accountAddress,\n        uint256 _ownerId,\n        uint256 _productId\n    )\n        public\n        view\n        onlyOwner(_accountAddress, _ownerId)\n        returns (ProductStatusDeails[] memory)\n    {\n        return productStatus[_productId];\n    }\n\n    // OA-5 : The function to add a product.\n    function addProduct(\n        address _accountAddress,\n        uint256 _ownerId,\n        string memory _name\n    ) public onlyOwner(_accountAddress, _ownerId) {\n        uint256 productId = uint256(\n            keccak256(abi.encodePacked(block.difficulty, block.number, _name))\n        );\n        accountsByAddress[_accountAddress].products.push(\n            ProductDetails(_name, productId)\n        );\n        ProductStatusDeails memory productStatusDeails = ProductStatusDeails(\n            productId,\n            block.timestamp,\n            \"Ordered\",\n            _ownerId\n        );\n        productStatus[productId].push(productStatusDeails);\n    }\n\n    // SP-1 : The function to add an supplier.\n    function addSupplier(\n        address _accountAddress,\n        string memory _name,\n        uint256 _supplierId\n    ) public onlySupplier(_accountAddress, _supplierId) {\n        require(isAccountPresent[_accountAddress], \"Invalid Account\");\n        accountsByAddress[_accountAddress].suppliers.push(\n            SupplierDetails(_name, _supplierId)\n        );\n    }\n\n    // OA-2 : The function to get the number of products.\n    function getNoProduct2(address _accountAddress, uint256 _supplierId)\n        public\n        view\n        onlySupplier(_accountAddress, _supplierId)\n        returns (uint256)\n    {\n        return accountsByAddress[_accountAddress].products.length;\n    }\n\n    // SP-3 : The function to get the list of products.\n    function getProductGeneralDetails2(\n        address _accountAddress,\n        uint256 _supplierId\n    )\n        public\n        view\n        onlySupplier(_accountAddress, _supplierId)\n        returns (ProductDetails[] memory)\n    {\n        return accountsByAddress[_accountAddress].products;\n    }\n\n    // SP-4 : The function to add a supply detail about the product.\n    function addProductStaus(\n        address _accountAddress,\n        uint256 _supplierId,\n        string memory _message,\n        uint256 _productId\n    ) public onlySupplier(_accountAddress, _supplierId) {\n        ProductStatusDeails memory productStatusDeails = ProductStatusDeails(\n            _productId,\n            block.timestamp,\n            _message,\n            _supplierId\n        );\n        productStatus[_productId].push(productStatusDeails);\n    }\n\n    // The functions that will by called by The Company Website:  C - 1 to 5\n\n    // The modifier that allows only The Company access the functions.\n    modifier onlyCompany() {\n        require(\n            msg.sender == company,\n            \"Only The Company can access this function\"\n        );\n        _;\n    }\n\n    // C-1 :  The function to check if the Account is present. Returns - True / False.\n    function checkIfAccountPresent(address _accountAddress)\n        public\n        view\n        onlyCompany\n        returns (bool)\n    {\n        if (isAccountPresent[_accountAddress]) {\n            return true;\n        } else {\n            return false;\n        }\n    }\n\n    // C-2 : The function to careate an account. Called - checkIfAccountPresent returns False.\n    function createAccount(address _accountAddress) public onlyCompany {\n        isAccountPresent[_accountAddress] = true;\n        accountsByAddress[_accountAddress].accountAddress = _accountAddress;\n        accountsByAddress[_accountAddress].accountId = uint256(\n            keccak256(\n                abi.encodePacked(\n                    block.difficulty,\n                    block.number,\n                    _accountAddress\n                )\n            )\n        );\n    }\n\n    // C-3 : The function to check if the payment is done. Returns - True / False. Called - checkIfAccountPresent returns True.\n    function checkIfPaymentDone(address _accountAddress)\n        public\n        view\n        onlyCompany\n        returns (bool)\n    {\n        if (accountsByAddress[_accountAddress].isPaymentDone) {\n            return true;\n        } else {\n            return false;\n        }\n    }\n\n    // C-4 : The function to select a plan. Called - checkIfPaymentDone returns False.\n    function selectPlan(\n        address _accountAddress,\n        uint256 _amountPaid,\n        uint256 _planExpiresAt\n    ) public payable onlyCompany {\n        accountsByAddress[_accountAddress].isPaymentDone = true;\n        accountsByAddress[_accountAddress].amountPaid = _amountPaid;\n        accountsByAddress[_accountAddress].planExpiresAt = _planExpiresAt;\n    }\n\n    // C-5 : The function to check if the plan is expired. Returns - True / False.\n    function checkIfPlanExpired(address _accountAddress)\n        public\n        view\n        onlyCompany\n        returns (bool)\n    {\n        if (\n            accountsByAddress[_accountAddress].planExpiresAt < block.timestamp\n        ) {\n            return true;\n        } else {\n            return false;\n        }\n    }\n}\n",
  "sourcePath": "/home/ajith/Documents/SC-smart-contract/contracts/SupplyChain.sol",
  "compiler": {
    "name": "solc",
    "version": "0.8.0+commit.c7dfd78e.Emscripten.clang"
  },
  "schemaVersion": "3.4.6",
  "updatedAt": "2022-04-18T18:26:30.059Z",
  "networkType": "ethereum",
  "devdoc": {
    "kind": "dev",
    "methods": {},
    "version": 1
  },
  "userdoc": {
    "kind": "user",
    "methods": {},
    "version": 1
  }
}