{
  "contractName": "SupplyChain",
  "abi": [
    {
      "inputs": [],
      "stateMutability": "nonpayable",
      "type": "constructor"
    },
    {
      "inputs": [
        {
          "internalType": "address",
          "name": "",
          "type": "address"
        }
      ],
      "name": "accountsByAddress",
      "outputs": [
        {
          "internalType": "address",
          "name": "accountAddress",
          "type": "address"
        },
        {
          "internalType": "uint256",
          "name": "accountId",
          "type": "uint256"
        },
        {
          "internalType": "bool",
          "name": "isPaymentDone",
          "type": "bool"
        },
        {
          "internalType": "uint256",
          "name": "amountPaid",
          "type": "uint256"
        },
        {
          "internalType": "uint256",
          "name": "planExpiresAt",
          "type": "uint256"
        }
      ],
      "stateMutability": "view",
      "type": "function"
    },
    {
      "inputs": [],
      "name": "company",
      "outputs": [
        {
          "internalType": "address payable",
          "name": "",
          "type": "address"
        }
      ],
      "stateMutability": "view",
      "type": "function"
    },
    {
      "inputs": [
        {
          "internalType": "address",
          "name": "",
          "type": "address"
        }
      ],
      "name": "isAccountPresent",
      "outputs": [
        {
          "internalType": "bool",
          "name": "",
          "type": "bool"
        }
      ],
      "stateMutability": "view",
      "type": "function"
    },
    {
      "inputs": [
        {
          "internalType": "uint256",
          "name": "",
          "type": "uint256"
        }
      ],
      "name": "ownersById",
      "outputs": [
        {
          "internalType": "string",
          "name": "name",
          "type": "string"
        },
        {
          "internalType": "uint256",
          "name": "ownerId",
          "type": "uint256"
        }
      ],
      "stateMutability": "view",
      "type": "function"
    },
    {
      "inputs": [
        {
          "internalType": "uint256",
          "name": "",
          "type": "uint256"
        }
      ],
      "name": "suppliersById",
      "outputs": [
        {
          "internalType": "string",
          "name": "name",
          "type": "string"
        },
        {
          "internalType": "uint256",
          "name": "supplierId",
          "type": "uint256"
        }
      ],
      "stateMutability": "view",
      "type": "function"
    },
    {
      "inputs": [
        {
          "internalType": "address",
          "name": "_accountAddress",
          "type": "address"
        },
        {
          "internalType": "string",
          "name": "_name",
          "type": "string"
        },
        {
          "internalType": "uint256",
          "name": "_ownerId",
          "type": "uint256"
        }
      ],
      "name": "addOwner",
      "outputs": [],
      "stateMutability": "nonpayable",
      "type": "function"
    },
    {
      "inputs": [
        {
          "internalType": "address",
          "name": "_accountAddress",
          "type": "address"
        },
        {
          "internalType": "uint256",
          "name": "_ownerId",
          "type": "uint256"
        }
      ],
      "name": "getNoProduct",
      "outputs": [
        {
          "internalType": "uint256",
          "name": "",
          "type": "uint256"
        }
      ],
      "stateMutability": "view",
      "type": "function"
    },
    {
      "inputs": [
        {
          "internalType": "address",
          "name": "_accountAddress",
          "type": "address"
        },
        {
          "internalType": "uint256",
          "name": "_ownerId",
          "type": "uint256"
        }
      ],
      "name": "getProductGeneralDetails1",
      "outputs": [
        {
          "components": [
            {
              "internalType": "string",
              "name": "name",
              "type": "string"
            },
            {
              "internalType": "uint256",
              "name": "productId",
              "type": "uint256"
            }
          ],
          "internalType": "struct SupplyChain.ProductDetails[]",
          "name": "",
          "type": "tuple[]"
        }
      ],
      "stateMutability": "view",
      "type": "function"
    },
    {
      "inputs": [
        {
          "internalType": "address",
          "name": "_accountAddress",
          "type": "address"
        },
        {
          "internalType": "uint256",
          "name": "_ownerId",
          "type": "uint256"
        },
        {
          "internalType": "uint256",
          "name": "_productId",
          "type": "uint256"
        }
      ],
      "name": "getProductStatusDetails",
      "outputs": [
        {
          "components": [
            {
              "internalType": "uint256",
              "name": "productId",
              "type": "uint256"
            },
            {
              "internalType": "uint256",
              "name": "time",
              "type": "uint256"
            },
            {
              "internalType": "string",
              "name": "message",
              "type": "string"
            },
            {
              "internalType": "uint256",
              "name": "publisherId",
              "type": "uint256"
            }
          ],
          "internalType": "struct SupplyChain.ProductStatusDeails[]",
          "name": "",
          "type": "tuple[]"
        }
      ],
      "stateMutability": "view",
      "type": "function"
    },
    {
      "inputs": [
        {
          "internalType": "address",
          "name": "_accountAddress",
          "type": "address"
        },
        {
          "internalType": "uint256",
          "name": "_ownerId",
          "type": "uint256"
        },
        {
          "internalType": "string",
          "name": "_name",
          "type": "string"
        }
      ],
      "name": "addProduct",
      "outputs": [],
      "stateMutability": "nonpayable",
      "type": "function"
    },
    {
      "inputs": [
        {
          "internalType": "address",
          "name": "_accountAddress",
          "type": "address"
        },
        {
          "internalType": "string",
          "name": "_name",
          "type": "string"
        },
        {
          "internalType": "uint256",
          "name": "_supplierId",
          "type": "uint256"
        }
      ],
      "name": "addSupplier",
      "outputs": [],
      "stateMutability": "nonpayable",
      "type": "function"
    },
    {
      "inputs": [
        {
          "internalType": "address",
          "name": "_accountAddress",
          "type": "address"
        },
        {
          "internalType": "uint256",
          "name": "_supplierId",
          "type": "uint256"
        }
      ],
      "name": "getNoProduct2",
      "outputs": [
        {
          "internalType": "uint256",
          "name": "",
          "type": "uint256"
        }
      ],
      "stateMutability": "view",
      "type": "function"
    },
    {
      "inputs": [
        {
          "internalType": "address",
          "name": "_accountAddress",
          "type": "address"
        },
        {
          "internalType": "uint256",
          "name": "_supplierId",
          "type": "uint256"
        }
      ],
      "name": "getProductGeneralDetails2",
      "outputs": [
        {
          "components": [
            {
              "internalType": "string",
              "name": "name",
              "type": "string"
            },
            {
              "internalType": "uint256",
              "name": "productId",
              "type": "uint256"
            }
          ],
          "internalType": "struct SupplyChain.ProductDetails[]",
          "name": "",
          "type": "tuple[]"
        }
      ],
      "stateMutability": "view",
      "type": "function"
    },
    {
      "inputs": [
        {
          "internalType": "address",
          "name": "_accountAddress",
          "type": "address"
        },
        {
          "internalType": "uint256",
          "name": "_supplierId",
          "type": "uint256"
        },
        {
          "internalType": "string",
          "name": "_message",
          "type": "string"
        },
        {
          "internalType": "uint256",
          "name": "_productId",
          "type": "uint256"
        }
      ],
      "name": "addProductStaus",
      "outputs": [],
      "stateMutability": "nonpayable",
      "type": "function"
    },
    {
      "inputs": [
        {
          "internalType": "address",
          "name": "_accountAddress",
          "type": "address"
        }
      ],
      "name": "checkIfAccountPresent",
      "outputs": [
        {
          "internalType": "bool",
          "name": "",
          "type": "bool"
        }
      ],
      "stateMutability": "view",
      "type": "function"
    },
    {
      "inputs": [
        {
          "internalType": "address",
          "name": "_accountAddress",
          "type": "address"
        }
      ],
      "name": "createAccount",
      "outputs": [],
      "stateMutability": "nonpayable",
      "type": "function"
    },
    {
      "inputs": [
        {
          "internalType": "address",
          "name": "_accountAddress",
          "type": "address"
        }
      ],
      "name": "checkIfPaymentDone",
      "outputs": [
        {
          "internalType": "bool",
          "name": "",
          "type": "bool"
        }
      ],
      "stateMutability": "view",
      "type": "function"
    },
    {
      "inputs": [
        {
          "internalType": "address",
          "name": "_accountAddress",
          "type": "address"
        },
        {
          "internalType": "uint256",
          "name": "_amountPaid",
          "type": "uint256"
        },
        {
          "internalType": "uint256",
          "name": "_planExpiresAt",
          "type": "uint256"
        }
      ],
      "name": "selectPlan",
      "outputs": [],
      "stateMutability": "nonpayable",
      "type": "function"
    },
    {
      "inputs": [
        {
          "internalType": "address",
          "name": "_accountAddress",
          "type": "address"
        }
      ],
      "name": "checkIfPlanExpired",
      "outputs": [
        {
          "internalType": "bool",
          "name": "",
          "type": "bool"
        }
      ],
      "stateMutability": "view",
      "type": "function"
    }
  ],
  "bytecode": "0x608060405234801561001057600080fd5b50336000806101000a81548173ffffffffffffffffffffffffffffffffffffffff021916908373ffffffffffffffffffffffffffffffffffffffff160217905550612118806100606000396000f3fe608060405234801561001057600080fd5b50600436106101215760003560e01c80637e25ce02116100ad578063b2c4f87d11610071578063b2c4f87d14610356578063c1d69d5b14610386578063d5400e19146103b6578063ec9aa13c146103e6578063fd170b6e1461040257610121565b80637e25ce0214610278578063851ecf15146102a85780639859387b146102d9578063a0e85f79146102f5578063ac4f1d531461032557610121565b806365c2eaaa116100f457806365c2eaaa146101c25780636904c94d146101de5780637434c053146101fc578063761680f61461022c5780637cfa80ab1461024857610121565b80630651ba5c146101265780632808ffd81461014257806341929ea914610176578063473c56f614610192575b600080fd5b610140600480360381019061013b91906116f2565b610432565b005b61015c600480360381019061015791906116c9565b61056c565b60405161016d959493929190611cf4565b60405180910390f35b610190600480360381019061018b91906116f2565b6105cf565b005b6101ac60048036038101906101a79190611759565b610709565b6040516101b99190611e16565b60405180910390f35b6101dc60048036038101906101d79190611877565b61075d565b005b6101e66108d9565b6040516101f39190611cd9565b60405180910390f35b61021660048036038101906102119190611877565b6108fd565b6040516102239190611d69565b60405180910390f35b610246600480360381019061024191906117fc565b610a25565b005b610262600480360381019061025d9190611759565b610acf565b60405161026f9190611d47565b60405180910390f35b610292600480360381019061028d9190611759565b610c11565b60405161029f9190611e16565b60405180910390f35b6102c260048036038101906102bd91906118c6565b610c65565b6040516102d0929190611da6565b60405180910390f35b6102f360048036038101906102ee91906116c9565b610d11565b005b61030f600480360381019061030a91906116c9565b610eef565b60405161031c9190611d8b565b60405180910390f35b61033f600480360381019061033a91906118c6565b610fdd565b60405161034d929190611da6565b60405180910390f35b610370600480360381019061036b91906116c9565b611089565b60405161037d9190611d8b565b60405180910390f35b6103a0600480360381019061039b91906116c9565b611182565b6040516103ad9190611d8b565b60405180910390f35b6103d060048036038101906103cb91906116c9565b6111a2565b6040516103dd9190611d8b565b60405180910390f35b61040060048036038101906103fb9190611795565b611298565b005b61041c60048036038101906104179190611759565b611452565b6040516104299190611d47565b60405180910390f35b600360008473ffffffffffffffffffffffffffffffffffffffff1673ffffffffffffffffffffffffffffffffffffffff16815260200190815260200160002060009054906101000a900460ff166104be576040517f08c379a00000000000000000000000000000000000000000000000000000000081526004016104b590611df6565b60405180910390fd5b600460008473ffffffffffffffffffffffffffffffffffffffff1673ffffffffffffffffffffffffffffffffffffffff1681526020019081526020016000206006016040518060400160405280848152602001838152509080600181540180825580915050600190039060005260206000209060020201600090919091909150600082015181600001908051906020019061055a929190611594565b50602082015181600101555050505050565b60046020528060005260406000206000915090508060000160009054906101000a900473ffffffffffffffffffffffffffffffffffffffff16908060010154908060020160009054906101000a900460ff16908060030154908060040154905085565b600360008473ffffffffffffffffffffffffffffffffffffffff1673ffffffffffffffffffffffffffffffffffffffff16815260200190815260200160002060009054906101000a900460ff1661065b576040517f08c379a000000000000000000000000000000000000000000000000000000000815260040161065290611df6565b60405180910390fd5b600460008473ffffffffffffffffffffffffffffffffffffffff1673ffffffffffffffffffffffffffffffffffffffff168152602001908152602001600020600501604051806040016040528084815260200183815250908060018154018082558091505060019003906000526020600020906002020160009091909190915060008201518160000190805190602001906106f7929190611594565b50602082015181600101555050505050565b60008282600460008673ffffffffffffffffffffffffffffffffffffffff1673ffffffffffffffffffffffffffffffffffffffff168152602001908152602001600020600701805490509250505092915050565b60008054906101000a900473ffffffffffffffffffffffffffffffffffffffff1673ffffffffffffffffffffffffffffffffffffffff163373ffffffffffffffffffffffffffffffffffffffff16146107eb576040517f08c379a00000000000000000000000000000000000000000000000000000000081526004016107e290611dd6565b60405180910390fd5b6001600460008573ffffffffffffffffffffffffffffffffffffffff1673ffffffffffffffffffffffffffffffffffffffff16815260200190815260200160002060020160006101000a81548160ff02191690831515021790555081600460008573ffffffffffffffffffffffffffffffffffffffff1673ffffffffffffffffffffffffffffffffffffffff1681526020019081526020016000206003018190555080600460008573ffffffffffffffffffffffffffffffffffffffff1673ffffffffffffffffffffffffffffffffffffffff16815260200190815260200160002060040181905550505050565b60008054906101000a900473ffffffffffffffffffffffffffffffffffffffff1681565b6060838360016000858152602001908152602001600020805480602002602001604051908101604052809291908181526020016000905b82821015610a165783829060005260206000209060040201604051806080016040529081600082015481526020016001820154815260200160028201805461097b90611fd8565b80601f01602080910402602001604051908101604052809291908181526020018280546109a790611fd8565b80156109f45780601f106109c9576101008083540402835291602001916109f4565b820191906000526020600020905b8154815290600101906020018083116109d757829003601f168201915b5050505050815260200160038201548152505081526020019060010190610934565b50505050925050509392505050565b8383600060405180608001604052808581526020014281526020018681526020018781525090506001600085815260200190815260200160002081908060018154018082558091505060019003906000526020600020906004020160009091909190915060008201518160000155602082015181600101556040820151816002019080519060200190610ab9929190611594565b5060608201518160030155505050505050505050565b60608282600460008673ffffffffffffffffffffffffffffffffffffffff1673ffffffffffffffffffffffffffffffffffffffff168152602001908152602001600020600701805480602002602001604051908101604052809291908181526020016000905b82821015610c035783829060005260206000209060020201604051806040016040529081600082018054610b6890611fd8565b80601f0160208091040260200160405190810160405280929190818152602001828054610b9490611fd8565b8015610be15780601f10610bb657610100808354040283529160200191610be1565b820191906000526020600020905b815481529060010190602001808311610bc457829003601f168201915b5050505050815260200160018201548152505081526020019060010190610b35565b505050509250505092915050565b60008282600460008673ffffffffffffffffffffffffffffffffffffffff1673ffffffffffffffffffffffffffffffffffffffff168152602001908152602001600020600701805490509250505092915050565b6006602052806000526040600020600091509050806000018054610c8890611fd8565b80601f0160208091040260200160405190810160405280929190818152602001828054610cb490611fd8565b8015610d015780601f10610cd657610100808354040283529160200191610d01565b820191906000526020600020905b815481529060010190602001808311610ce457829003601f168201915b5050505050908060010154905082565b60008054906101000a900473ffffffffffffffffffffffffffffffffffffffff1673ffffffffffffffffffffffffffffffffffffffff163373ffffffffffffffffffffffffffffffffffffffff1614610d9f576040517f08c379a0000000000000000000000000000000000000000000000000000000008152600401610d9690611dd6565b60405180910390fd5b6001600360008373ffffffffffffffffffffffffffffffffffffffff1673ffffffffffffffffffffffffffffffffffffffff16815260200190815260200160002060006101000a81548160ff02191690831515021790555080600460008373ffffffffffffffffffffffffffffffffffffffff1673ffffffffffffffffffffffffffffffffffffffff16815260200190815260200160002060000160006101000a81548173ffffffffffffffffffffffffffffffffffffffff021916908373ffffffffffffffffffffffffffffffffffffffff160217905550444382604051602001610e8d93929190611c63565b6040516020818303038152906040528051906020012060001c600460008373ffffffffffffffffffffffffffffffffffffffff1673ffffffffffffffffffffffffffffffffffffffff1681526020019081526020016000206001018190555050565b60008060009054906101000a900473ffffffffffffffffffffffffffffffffffffffff1673ffffffffffffffffffffffffffffffffffffffff163373ffffffffffffffffffffffffffffffffffffffff1614610f80576040517f08c379a0000000000000000000000000000000000000000000000000000000008152600401610f7790611dd6565b60405180910390fd5b42600460008473ffffffffffffffffffffffffffffffffffffffff1673ffffffffffffffffffffffffffffffffffffffff168152602001908152602001600020600401541015610fd35760019050610fd8565b600090505b919050565b600560205280600052604060002060009150905080600001805461100090611fd8565b80601f016020809104026020016040519081016040528092919081815260200182805461102c90611fd8565b80156110795780601f1061104e57610100808354040283529160200191611079565b820191906000526020600020905b81548152906001019060200180831161105c57829003601f168201915b5050505050908060010154905082565b60008060009054906101000a900473ffffffffffffffffffffffffffffffffffffffff1673ffffffffffffffffffffffffffffffffffffffff163373ffffffffffffffffffffffffffffffffffffffff161461111a576040517f08c379a000000000000000000000000000000000000000000000000000000000815260040161111190611dd6565b60405180910390fd5b600460008373ffffffffffffffffffffffffffffffffffffffff1673ffffffffffffffffffffffffffffffffffffffff16815260200190815260200160002060020160009054906101000a900460ff1615611178576001905061117d565b600090505b919050565b60036020528060005260406000206000915054906101000a900460ff1681565b60008060009054906101000a900473ffffffffffffffffffffffffffffffffffffffff1673ffffffffffffffffffffffffffffffffffffffff163373ffffffffffffffffffffffffffffffffffffffff1614611233576040517f08c379a000000000000000000000000000000000000000000000000000000000815260040161122a90611dd6565b60405180910390fd5b600360008373ffffffffffffffffffffffffffffffffffffffff1673ffffffffffffffffffffffffffffffffffffffff16815260200190815260200160002060009054906101000a900460ff161561128e5760019050611293565b600090505b919050565b828260004443856040516020016112b193929190611ca0565b6040516020818303038152906040528051906020012060001c9050600460008773ffffffffffffffffffffffffffffffffffffffff1673ffffffffffffffffffffffffffffffffffffffff16815260200190815260200160002060070160405180604001604052808681526020018381525090806001815401808255809150506001900390600052602060002090600202016000909190919091506000820151816000019080519060200190611368929190611594565b50602082015181600101555050600060405180608001604052808381526020014281526020016040518060400160405280600781526020017f4f726465726564000000000000000000000000000000000000000000000000008152508152602001878152509050600160008381526020019081526020016000208190806001815401808255809150506001900390600052602060002090600402016000909190919091506000820151816000015560208201518160010155604082015181600201908051906020019061143c929190611594565b5060608201518160030155505050505050505050565b60608282600460008673ffffffffffffffffffffffffffffffffffffffff1673ffffffffffffffffffffffffffffffffffffffff168152602001908152602001600020600701805480602002602001604051908101604052809291908181526020016000905b8282101561158657838290600052602060002090600202016040518060400160405290816000820180546114eb90611fd8565b80601f016020809104026020016040519081016040528092919081815260200182805461151790611fd8565b80156115645780601f1061153957610100808354040283529160200191611564565b820191906000526020600020905b81548152906001019060200180831161154757829003601f168201915b50505050508152602001600182015481525050815260200190600101906114b8565b505050509250505092915050565b8280546115a090611fd8565b90600052602060002090601f0160209004810192826115c25760008555611609565b82601f106115db57805160ff1916838001178555611609565b82800160010185558215611609579182015b828111156116085782518255916020019190600101906115ed565b5b509050611616919061161a565b5090565b5b8082111561163357600081600090555060010161161b565b5090565b600061164a61164584611e62565b611e31565b90508281526020810184848401111561166257600080fd5b61166d848285611f96565b509392505050565b600081359050611684816120b4565b92915050565b600082601f83011261169b57600080fd5b81356116ab848260208601611637565b91505092915050565b6000813590506116c3816120cb565b92915050565b6000602082840312156116db57600080fd5b60006116e984828501611675565b91505092915050565b60008060006060848603121561170757600080fd5b600061171586828701611675565b935050602084013567ffffffffffffffff81111561173257600080fd5b61173e8682870161168a565b925050604061174f868287016116b4565b9150509250925092565b6000806040838503121561176c57600080fd5b600061177a85828601611675565b925050602061178b858286016116b4565b9150509250929050565b6000806000606084860312156117aa57600080fd5b60006117b886828701611675565b93505060206117c9868287016116b4565b925050604084013567ffffffffffffffff8111156117e657600080fd5b6117f28682870161168a565b9150509250925092565b6000806000806080858703121561181257600080fd5b600061182087828801611675565b9450506020611831878288016116b4565b935050604085013567ffffffffffffffff81111561184e57600080fd5b61185a8782880161168a565b925050606061186b878288016116b4565b91505092959194509250565b60008060006060848603121561188c57600080fd5b600061189a86828701611675565b93505060206118ab868287016116b4565b92505060406118bc868287016116b4565b9150509250925092565b6000602082840312156118d857600080fd5b60006118e6848285016116b4565b91505092915050565b60006118fb8383611b8e565b905092915050565b600061190f8383611bcb565b905092915050565b61192081611f4e565b82525050565b61192f81611f3c565b82525050565b61194661194182611f3c565b61200a565b82525050565b600061195782611eb2565b6119618185611eed565b93508360208202850161197385611e92565b8060005b858110156119af578484038952815161199085826118ef565b945061199b83611ed3565b925060208a01995050600181019050611977565b50829750879550505050505092915050565b60006119cc82611ebd565b6119d68185611efe565b9350836020820285016119e885611ea2565b8060005b85811015611a245784840389528151611a058582611903565b9450611a1083611ee0565b925060208a019950506001810190506119ec565b50829750879550505050505092915050565b611a3f81611f60565b82525050565b6000611a5082611ec8565b611a5a8185611f0f565b9350611a6a818560208601611fa5565b611a7381612096565b840191505092915050565b6000611a8982611ec8565b611a938185611f20565b9350611aa3818560208601611fa5565b611aac81612096565b840191505092915050565b6000611ac282611ec8565b611acc8185611f31565b9350611adc818560208601611fa5565b80840191505092915050565b6000611af5602983611f20565b91507f4f6e6c792054686520436f6d70616e792063616e20616363657373207468697360008301527f2066756e6374696f6e00000000000000000000000000000000000000000000006020830152604082019050919050565b6000611b5b600f83611f20565b91507f496e76616c6964204163636f756e7400000000000000000000000000000000006000830152602082019050919050565b60006040830160008301518482036000860152611bab8282611a45565b9150506020830151611bc06020860182611c2e565b508091505092915050565b6000608083016000830151611be36000860182611c2e565b506020830151611bf66020860182611c2e565b5060408301518482036040860152611c0e8282611a45565b9150506060830151611c236060860182611c2e565b508091505092915050565b611c3781611f8c565b82525050565b611c4681611f8c565b82525050565b611c5d611c5882611f8c565b61202e565b82525050565b6000611c6f8286611c4c565b602082019150611c7f8285611c4c565b602082019150611c8f8284611935565b601482019150819050949350505050565b6000611cac8286611c4c565b602082019150611cbc8285611c4c565b602082019150611ccc8284611ab7565b9150819050949350505050565b6000602082019050611cee6000830184611917565b92915050565b600060a082019050611d096000830188611926565b611d166020830187611c3d565b611d236040830186611a36565b611d306060830185611c3d565b611d3d6080830184611c3d565b9695505050505050565b60006020820190508181036000830152611d61818461194c565b905092915050565b60006020820190508181036000830152611d8381846119c1565b905092915050565b6000602082019050611da06000830184611a36565b92915050565b60006040820190508181036000830152611dc08185611a7e565b9050611dcf6020830184611c3d565b9392505050565b60006020820190508181036000830152611def81611ae8565b9050919050565b60006020820190508181036000830152611e0f81611b4e565b9050919050565b6000602082019050611e2b6000830184611c3d565b92915050565b6000604051905081810181811067ffffffffffffffff82111715611e5857611e57612067565b5b8060405250919050565b600067ffffffffffffffff821115611e7d57611e7c612067565b5b601f19601f8301169050602081019050919050565b6000819050602082019050919050565b6000819050602082019050919050565b600081519050919050565b600081519050919050565b600081519050919050565b6000602082019050919050565b6000602082019050919050565b600082825260208201905092915050565b600082825260208201905092915050565b600082825260208201905092915050565b600082825260208201905092915050565b600081905092915050565b6000611f4782611f6c565b9050919050565b6000611f5982611f6c565b9050919050565b60008115159050919050565b600073ffffffffffffffffffffffffffffffffffffffff82169050919050565b6000819050919050565b82818337600083830152505050565b60005b83811015611fc3578082015181840152602081019050611fa8565b83811115611fd2576000848401525b50505050565b60006002820490506001821680611ff057607f821691505b6020821081141561200457612003612038565b5b50919050565b60006120158261201c565b9050919050565b6000612027826120a7565b9050919050565b6000819050919050565b7f4e487b7100000000000000000000000000000000000000000000000000000000600052602260045260246000fd5b7f4e487b7100000000000000000000000000000000000000000000000000000000600052604160045260246000fd5b6000601f19601f8301169050919050565b60008160601b9050919050565b6120bd81611f3c565b81146120c857600080fd5b50565b6120d481611f8c565b81146120df57600080fd5b5056fea264697066735822122001bb86e1d170782e80c1ab6db1e82efc511e0125fd6f50ac861c1bd008fe349864736f6c63430008000033",
  "immutableReferences": {},
  "source": "// SPDX-License-Identifier: GPL-3.0\npragma solidity ^0.8.0;\n\ncontract SupplyChain {\n    // The payable address of the company\n    address payable public company;\n\n    constructor() {\n        company = payable(msg.sender);\n    }\n\n    // The details of an user Account.\n    struct AccountDetails {\n        address accountAddress; // The unique account address of the user - from the metamask wallet.\n        uint256 accountId; // The unique account id - we generate it.\n        bool isPaymentDone; // The boolian variable to check if the payment is done or not.\n        uint256 amountPaid; // The amount (ETH) payed by the user.\n        uint256 planExpiresAt; // The time stamp at which the plan expires.\n        OwnerDetails[] owners; // The owner for the application.\n        SupplierDetails[] suppliers; // The list of suppliers for the application.\n        ProductDetails[] products; // The list of products for the application.\n    }\n\n    // The details of an owner Account.\n    struct OwnerDetails {\n        string name;\n        uint256 ownerId;\n    }\n\n    // The details of a supplier Account.\n    struct SupplierDetails {\n        string name;\n        uint256 supplierId;\n    }\n\n    // The details of a product.\n    struct ProductDetails {\n        string name;\n        uint256 productId;\n    }\n\n    mapping(uint256 => ProductStatusDeails[]) productStatus;\n\n    ProductStatusDeails[] productStatusDeailsList;\n\n    // The details of a product status.\n    struct ProductStatusDeails {\n        uint256 productId;\n        uint256 time;\n        string message;\n        uint256 publisherId;\n    }\n\n    // To check if the user is present.\n    mapping(address => bool) public isAccountPresent;\n\n    // To get the user from the account Address.\n    mapping(address => AccountDetails) public accountsByAddress;\n\n    // To get the owner from the account Address.\n    mapping(uint256 => OwnerDetails) public ownersById;\n\n    // To get the supplier from the account Address.\n    mapping(uint256 => SupplierDetails) public suppliersById;\n\n    // The functions that will be called by The Application (Using APIs):\n    // The Owner Application - OA\n    // The Supplier Application - SP\n\n    // The modifier that allows only the owners to access the functions.\n    modifier onlyOwner(address _accountAddress, uint256 _ownerId) {\n        //require(msg.sender == company,\"Only The Company can access this function\");\n        _;\n    }\n\n    // The modifier that allows only the suppliers to access the functions.\n    modifier onlySupplier(address _accountAddress, uint256 _supplierId) {\n        //require(msg.sender == company,\"Only The Company can access this function\");\n        _;\n    }\n\n    // OA-1 : The function to add an owner.\n    function addOwner(\n        address _accountAddress,\n        string memory _name,\n        uint256 _ownerId\n    ) public {\n        require(isAccountPresent[_accountAddress], \"Invalid Account\");\n        accountsByAddress[_accountAddress].owners.push(\n            OwnerDetails(_name, _ownerId)\n        );\n    }\n\n    // OA-2 : The function to get the number of products.\n    function getNoProduct(address _accountAddress, uint256 _ownerId)\n        public\n        view\n        onlyOwner(_accountAddress, _ownerId)\n        returns (uint256)\n    {\n        return accountsByAddress[_accountAddress].products.length;\n    }\n\n    // OA-3 : The function to get the list of products.\n    function getProductGeneralDetails1(\n        address _accountAddress,\n        uint256 _ownerId\n    )\n        public\n        view\n        onlyOwner(_accountAddress, _ownerId)\n        returns (ProductDetails[] memory)\n    {\n        return accountsByAddress[_accountAddress].products;\n    }\n\n    // OA-4 : The function to get a specific product's status details.\n    function getProductStatusDetails(\n        address _accountAddress,\n        uint256 _ownerId,\n        uint256 _productId\n    )\n        public\n        view\n        onlyOwner(_accountAddress, _ownerId)\n        returns (ProductStatusDeails[] memory)\n    {\n        return productStatus[_productId];\n    }\n\n    // OA-5 : The function to add a product.\n    function addProduct(\n        address _accountAddress,\n        uint256 _ownerId,\n        string memory _name\n    ) public onlyOwner(_accountAddress, _ownerId) {\n        uint256 productId = uint256(\n            keccak256(abi.encodePacked(block.difficulty, block.number, _name))\n        );\n        accountsByAddress[_accountAddress].products.push(\n            ProductDetails(_name, productId)\n        );\n        ProductStatusDeails memory productStatusDeails = ProductStatusDeails(\n            productId,\n            block.timestamp,\n            \"Ordered\",\n            _ownerId\n        );\n        productStatus[productId].push(productStatusDeails);\n    }\n\n    // SP-1 : The function to add an supplier.\n    function addSupplier(\n        address _accountAddress,\n        string memory _name,\n        uint256 _supplierId\n    ) public {\n        require(isAccountPresent[_accountAddress], \"Invalid Account\");\n        accountsByAddress[_accountAddress].suppliers.push(\n            SupplierDetails(_name, _supplierId)\n        );\n    }\n\n    // OA-2 : The function to get the number of products.\n    function getNoProduct2(address _accountAddress, uint256 _supplierId)\n        public\n        view\n        onlySupplier(_accountAddress, _supplierId)\n        returns (uint256)\n    {\n        return accountsByAddress[_accountAddress].products.length;\n    }\n\n    // SP-3 : The function to get the list of products.\n    function getProductGeneralDetails2(\n        address _accountAddress,\n        uint256 _supplierId\n    )\n        public\n        view\n        onlySupplier(_accountAddress, _supplierId)\n        returns (ProductDetails[] memory)\n    {\n        return accountsByAddress[_accountAddress].products;\n    }\n\n    // SP-4 : The function to add a supply detail about the product.\n    function addProductStaus(\n        address _accountAddress,\n        uint256 _supplierId,\n        string memory _message,\n        uint256 _productId\n    ) public onlySupplier(_accountAddress, _supplierId) {\n        ProductStatusDeails memory productStatusDeails = ProductStatusDeails(\n            _productId,\n            block.timestamp,\n            _message,\n            _supplierId\n        );\n        productStatus[_productId].push(productStatusDeails);\n    }\n\n    // The functions that will by called by The Company Website:  C - 1 to 5\n\n    // The modifier that allows only The Company access the functions.\n    modifier onlyCompany() {\n        require(\n            msg.sender == company,\n            \"Only The Company can access this function\"\n        );\n        _;\n    }\n\n    // C-1 :  The function to check if the Account is present. Returns - True / False.\n    function checkIfAccountPresent(address _accountAddress)\n        public\n        view\n        onlyCompany\n        returns (bool)\n    {\n        if (isAccountPresent[_accountAddress]) {\n            return true;\n        } else {\n            return false;\n        }\n    }\n\n    // C-2 : The function to careate an account. Called - checkIfAccountPresent returns False.\n    function createAccount(address _accountAddress) public onlyCompany {\n        isAccountPresent[_accountAddress] = true;\n        accountsByAddress[_accountAddress].accountAddress = _accountAddress;\n        accountsByAddress[_accountAddress].accountId = uint256(\n            keccak256(\n                abi.encodePacked(\n                    block.difficulty,\n                    block.number,\n                    _accountAddress\n                )\n            )\n        );\n    }\n\n    // C-3 : The function to check if the payment is done. Returns - True / False. Called - checkIfAccountPresent returns True.\n    function checkIfPaymentDone(address _accountAddress)\n        public\n        view\n        onlyCompany\n        returns (bool)\n    {\n        if (accountsByAddress[_accountAddress].isPaymentDone) {\n            return true;\n        } else {\n            return false;\n        }\n    }\n\n    // C-4 : The function to select a plan. Called - checkIfPaymentDone returns False.\n    function selectPlan(\n        address _accountAddress,\n        uint256 _amountPaid,\n        uint256 _planExpiresAt\n    ) public onlyCompany {\n        accountsByAddress[_accountAddress].isPaymentDone = true;\n        accountsByAddress[_accountAddress].amountPaid = _amountPaid;\n        accountsByAddress[_accountAddress].planExpiresAt = _planExpiresAt;\n    }\n\n    // C-5 : The function to check if the plan is expired. Returns - True / False.\n    function checkIfPlanExpired(address _accountAddress)\n        public\n        view\n        onlyCompany\n        returns (bool)\n    {\n        if (\n            accountsByAddress[_accountAddress].planExpiresAt < block.timestamp\n        ) {\n            return true;\n        } else {\n            return false;\n        }\n    }\n}\n",
  "sourcePath": "/home/ajith/Documents/SC-smart-contract/contracts/SupplyChain.sol",
  "compiler": {
    "name": "solc",
    "version": "0.8.0+commit.c7dfd78e.Emscripten.clang"
  },
  "schemaVersion": "3.4.6",
  "updatedAt": "2022-04-19T14:54:43.881Z",
  "devdoc": {
    "kind": "dev",
    "methods": {},
    "version": 1
  },
  "userdoc": {
    "kind": "user",
    "methods": {},
    "version": 1
  }
}